{
	"PHCoin.sol": {
		"PHCoin": {
			"abi": [
				{
					"inputs": [],
					"stateMutability": "nonpayable",
					"type": "constructor"
				},
				{
					"inputs": [
						{
							"internalType": "int256",
							"name": "amount",
							"type": "int256"
						}
					],
					"name": "depositBalance",
					"outputs": [],
					"stateMutability": "nonpayable",
					"type": "function"
				},
				{
					"inputs": [],
					"name": "getBalance",
					"outputs": [
						{
							"internalType": "int256",
							"name": "",
							"type": "int256"
						}
					],
					"stateMutability": "view",
					"type": "function"
				},
				{
					"inputs": [
						{
							"internalType": "int256",
							"name": "amount",
							"type": "int256"
						}
					],
					"name": "withdrawBalance",
					"outputs": [],
					"stateMutability": "nonpayable",
					"type": "function"
				}
			],
			"devdoc": {
				"kind": "dev",
				"methods": {},
				"version": 1
			},
			"evm": {
				"assembly": "    /* \"PHCoin.sol\":59:473  contract PHCoin{\r... */\n  mstore(0x40, 0x80)\n    /* \"PHCoin.sol\":105:148  constructor(){\r... */\n  callvalue\n  dup1\n  iszero\n  tag_1\n  jumpi\n  0x00\n  dup1\n  revert\ntag_1:\n  pop\n    /* \"PHCoin.sol\":139:140  0 */\n  0x00\n    /* \"PHCoin.sol\":129:136  balance */\n  dup1\n    /* \"PHCoin.sol\":129:140  balance = 0 */\n  dup2\n  swap1\n  sstore\n  pop\n    /* \"PHCoin.sol\":59:473  contract PHCoin{\r... */\n  dataSize(sub_0)\n  dup1\n  dataOffset(sub_0)\n  0x00\n  codecopy\n  0x00\n  return\nstop\n\nsub_0: assembly {\n        /* \"PHCoin.sol\":59:473  contract PHCoin{\r... */\n      mstore(0x40, 0x80)\n      callvalue\n      dup1\n      iszero\n      tag_1\n      jumpi\n      0x00\n      dup1\n      revert\n    tag_1:\n      pop\n      jumpi(tag_2, lt(calldatasize, 0x04))\n      shr(0xe0, calldataload(0x00))\n      dup1\n      0x12065fe0\n      eq\n      tag_3\n      jumpi\n      dup1\n      0x7c52caa3\n      eq\n      tag_4\n      jumpi\n      dup1\n      0xe51ed0a0\n      eq\n      tag_5\n      jumpi\n    tag_2:\n      0x00\n      dup1\n      revert\n        /* \"PHCoin.sol\":391:470  function getBalance() view public returns(int){\r... */\n    tag_3:\n      tag_6\n      tag_7\n      jump\t// in\n    tag_6:\n      mload(0x40)\n      tag_8\n      swap2\n      swap1\n      tag_9\n      jump\t// in\n    tag_8:\n      mload(0x40)\n      dup1\n      swap2\n      sub\n      swap1\n      return\n        /* \"PHCoin.sol\":242:383  function withdrawBalance(int amount) public{\r... */\n    tag_4:\n      tag_10\n      0x04\n      dup1\n      calldatasize\n      sub\n      dup2\n      add\n      swap1\n      tag_11\n      swap2\n      swap1\n      tag_12\n      jump\t// in\n    tag_11:\n      tag_13\n      jump\t// in\n    tag_10:\n      stop\n        /* \"PHCoin.sol\":156:234  function depositBalance(int amount) public{\r... */\n    tag_5:\n      tag_14\n      0x04\n      dup1\n      calldatasize\n      sub\n      dup2\n      add\n      swap1\n      tag_15\n      swap2\n      swap1\n      tag_12\n      jump\t// in\n    tag_15:\n      tag_16\n      jump\t// in\n    tag_14:\n      stop\n        /* \"PHCoin.sol\":391:470  function getBalance() view public returns(int){\r... */\n    tag_7:\n        /* \"PHCoin.sol\":433:436  int */\n      0x00\n        /* \"PHCoin.sol\":455:462  balance */\n      dup1\n      sload\n        /* \"PHCoin.sol\":448:462  return balance */\n      swap1\n      pop\n        /* \"PHCoin.sol\":391:470  function getBalance() view public returns(int){\r... */\n      swap1\n      jump\t// out\n        /* \"PHCoin.sol\":242:383  function withdrawBalance(int amount) public{\r... */\n    tag_13:\n        /* \"PHCoin.sol\":318:324  amount */\n      dup1\n        /* \"PHCoin.sol\":308:315  balance */\n      sload(0x00)\n        /* \"PHCoin.sol\":308:324  balance > amount */\n      sgt\n        /* \"PHCoin.sol\":300:347  require(balance > amount, \"Not Enough Balance\") */\n      tag_19\n      jumpi\n      mload(0x40)\n      0x08c379a000000000000000000000000000000000000000000000000000000000\n      dup2\n      mstore\n      0x04\n      add\n      tag_20\n      swap1\n      tag_21\n      jump\t// in\n    tag_20:\n      mload(0x40)\n      dup1\n      swap2\n      sub\n      swap1\n      revert\n    tag_19:\n        /* \"PHCoin.sol\":369:375  amount */\n      dup1\n        /* \"PHCoin.sol\":358:365  balance */\n      0x00\n      dup1\n        /* \"PHCoin.sol\":358:375  balance -= amount */\n      dup3\n      dup3\n      sload\n      tag_22\n      swap2\n      swap1\n      tag_23\n      jump\t// in\n    tag_22:\n      swap3\n      pop\n      pop\n      dup2\n      swap1\n      sstore\n      pop\n        /* \"PHCoin.sol\":242:383  function withdrawBalance(int amount) public{\r... */\n      pop\n      jump\t// out\n        /* \"PHCoin.sol\":156:234  function depositBalance(int amount) public{\r... */\n    tag_16:\n        /* \"PHCoin.sol\":220:226  amount */\n      dup1\n        /* \"PHCoin.sol\":209:216  balance */\n      0x00\n      dup1\n        /* \"PHCoin.sol\":209:226  balance += amount */\n      dup3\n      dup3\n      sload\n      tag_25\n      swap2\n      swap1\n      tag_26\n      jump\t// in\n    tag_25:\n      swap3\n      pop\n      pop\n      dup2\n      swap1\n      sstore\n      pop\n        /* \"PHCoin.sol\":156:234  function depositBalance(int amount) public{\r... */\n      pop\n      jump\t// out\n        /* \"#utility.yul\":7:144   */\n    tag_28:\n        /* \"#utility.yul\":52:57   */\n      0x00\n        /* \"#utility.yul\":90:96   */\n      dup2\n        /* \"#utility.yul\":77:97   */\n      calldataload\n        /* \"#utility.yul\":68:97   */\n      swap1\n      pop\n        /* \"#utility.yul\":106:138   */\n      tag_30\n        /* \"#utility.yul\":132:137   */\n      dup2\n        /* \"#utility.yul\":106:138   */\n      tag_31\n      jump\t// in\n    tag_30:\n        /* \"#utility.yul\":7:144   */\n      swap3\n      swap2\n      pop\n      pop\n      jump\t// out\n        /* \"#utility.yul\":150:477   */\n    tag_12:\n        /* \"#utility.yul\":208:214   */\n      0x00\n        /* \"#utility.yul\":257:259   */\n      0x20\n        /* \"#utility.yul\":245:254   */\n      dup3\n        /* \"#utility.yul\":236:243   */\n      dup5\n        /* \"#utility.yul\":232:255   */\n      sub\n        /* \"#utility.yul\":228:260   */\n      slt\n        /* \"#utility.yul\":225:344   */\n      iszero\n      tag_33\n      jumpi\n        /* \"#utility.yul\":263:342   */\n      tag_34\n      tag_35\n      jump\t// in\n    tag_34:\n        /* \"#utility.yul\":225:344   */\n    tag_33:\n        /* \"#utility.yul\":383:384   */\n      0x00\n        /* \"#utility.yul\":408:460   */\n      tag_36\n        /* \"#utility.yul\":452:459   */\n      dup5\n        /* \"#utility.yul\":443:449   */\n      dup3\n        /* \"#utility.yul\":432:441   */\n      dup6\n        /* \"#utility.yul\":428:450   */\n      add\n        /* \"#utility.yul\":408:460   */\n      tag_28\n      jump\t// in\n    tag_36:\n        /* \"#utility.yul\":398:460   */\n      swap2\n      pop\n        /* \"#utility.yul\":354:470   */\n      pop\n        /* \"#utility.yul\":150:477   */\n      swap3\n      swap2\n      pop\n      pop\n      jump\t// out\n        /* \"#utility.yul\":483:598   */\n    tag_37:\n        /* \"#utility.yul\":568:591   */\n      tag_39\n        /* \"#utility.yul\":585:590   */\n      dup2\n        /* \"#utility.yul\":568:591   */\n      tag_40\n      jump\t// in\n    tag_39:\n        /* \"#utility.yul\":563:566   */\n      dup3\n        /* \"#utility.yul\":556:592   */\n      mstore\n        /* \"#utility.yul\":483:598   */\n      pop\n      pop\n      jump\t// out\n        /* \"#utility.yul\":604:970   */\n    tag_41:\n        /* \"#utility.yul\":746:749   */\n      0x00\n        /* \"#utility.yul\":767:834   */\n      tag_43\n        /* \"#utility.yul\":831:833   */\n      0x12\n        /* \"#utility.yul\":826:829   */\n      dup4\n        /* \"#utility.yul\":767:834   */\n      tag_44\n      jump\t// in\n    tag_43:\n        /* \"#utility.yul\":760:834   */\n      swap2\n      pop\n        /* \"#utility.yul\":843:936   */\n      tag_45\n        /* \"#utility.yul\":932:935   */\n      dup3\n        /* \"#utility.yul\":843:936   */\n      tag_46\n      jump\t// in\n    tag_45:\n        /* \"#utility.yul\":961:963   */\n      0x20\n        /* \"#utility.yul\":956:959   */\n      dup3\n        /* \"#utility.yul\":952:964   */\n      add\n        /* \"#utility.yul\":945:964   */\n      swap1\n      pop\n        /* \"#utility.yul\":604:970   */\n      swap2\n      swap1\n      pop\n      jump\t// out\n        /* \"#utility.yul\":976:1194   */\n    tag_9:\n        /* \"#utility.yul\":1067:1071   */\n      0x00\n        /* \"#utility.yul\":1105:1107   */\n      0x20\n        /* \"#utility.yul\":1094:1103   */\n      dup3\n        /* \"#utility.yul\":1090:1108   */\n      add\n        /* \"#utility.yul\":1082:1108   */\n      swap1\n      pop\n        /* \"#utility.yul\":1118:1187   */\n      tag_48\n        /* \"#utility.yul\":1184:1185   */\n      0x00\n        /* \"#utility.yul\":1173:1182   */\n      dup4\n        /* \"#utility.yul\":1169:1186   */\n      add\n        /* \"#utility.yul\":1160:1166   */\n      dup5\n        /* \"#utility.yul\":1118:1187   */\n      tag_37\n      jump\t// in\n    tag_48:\n        /* \"#utility.yul\":976:1194   */\n      swap3\n      swap2\n      pop\n      pop\n      jump\t// out\n        /* \"#utility.yul\":1200:1619   */\n    tag_21:\n        /* \"#utility.yul\":1366:1370   */\n      0x00\n        /* \"#utility.yul\":1404:1406   */\n      0x20\n        /* \"#utility.yul\":1393:1402   */\n      dup3\n        /* \"#utility.yul\":1389:1407   */\n      add\n        /* \"#utility.yul\":1381:1407   */\n      swap1\n      pop\n        /* \"#utility.yul\":1453:1462   */\n      dup2\n        /* \"#utility.yul\":1447:1451   */\n      dup2\n        /* \"#utility.yul\":1443:1463   */\n      sub\n        /* \"#utility.yul\":1439:1440   */\n      0x00\n        /* \"#utility.yul\":1428:1437   */\n      dup4\n        /* \"#utility.yul\":1424:1441   */\n      add\n        /* \"#utility.yul\":1417:1464   */\n      mstore\n        /* \"#utility.yul\":1481:1612   */\n      tag_50\n        /* \"#utility.yul\":1607:1611   */\n      dup2\n        /* \"#utility.yul\":1481:1612   */\n      tag_41\n      jump\t// in\n    tag_50:\n        /* \"#utility.yul\":1473:1612   */\n      swap1\n      pop\n        /* \"#utility.yul\":1200:1619   */\n      swap2\n      swap1\n      pop\n      jump\t// out\n        /* \"#utility.yul\":1706:1875   */\n    tag_44:\n        /* \"#utility.yul\":1790:1801   */\n      0x00\n        /* \"#utility.yul\":1824:1830   */\n      dup3\n        /* \"#utility.yul\":1819:1822   */\n      dup3\n        /* \"#utility.yul\":1812:1831   */\n      mstore\n        /* \"#utility.yul\":1864:1868   */\n      0x20\n        /* \"#utility.yul\":1859:1862   */\n      dup3\n        /* \"#utility.yul\":1855:1869   */\n      add\n        /* \"#utility.yul\":1840:1869   */\n      swap1\n      pop\n        /* \"#utility.yul\":1706:1875   */\n      swap3\n      swap2\n      pop\n      pop\n      jump\t// out\n        /* \"#utility.yul\":1881:2406   */\n    tag_26:\n        /* \"#utility.yul\":1920:1923   */\n      0x00\n        /* \"#utility.yul\":1939:1958   */\n      tag_55\n        /* \"#utility.yul\":1956:1957   */\n      dup3\n        /* \"#utility.yul\":1939:1958   */\n      tag_40\n      jump\t// in\n    tag_55:\n        /* \"#utility.yul\":1934:1958   */\n      swap2\n      pop\n        /* \"#utility.yul\":1972:1991   */\n      tag_56\n        /* \"#utility.yul\":1989:1990   */\n      dup4\n        /* \"#utility.yul\":1972:1991   */\n      tag_40\n      jump\t// in\n    tag_56:\n        /* \"#utility.yul\":1967:1991   */\n      swap3\n      pop\n        /* \"#utility.yul\":2160:2161   */\n      dup2\n        /* \"#utility.yul\":2092:2158   */\n      0x7fffffffffffffffffffffffffffffffffffffffffffffffffffffffffffffff\n        /* \"#utility.yul\":2088:2162   */\n      sub\n        /* \"#utility.yul\":2085:2086   */\n      dup4\n        /* \"#utility.yul\":2081:2163   */\n      sgt\n        /* \"#utility.yul\":2076:2077   */\n      0x00\n        /* \"#utility.yul\":2073:2074   */\n      dup4\n        /* \"#utility.yul\":2069:2078   */\n      slt\n        /* \"#utility.yul\":2062:2079   */\n      iszero\n        /* \"#utility.yul\":2058:2164   */\n      and\n        /* \"#utility.yul\":2055:2187   */\n      iszero\n      tag_57\n      jumpi\n        /* \"#utility.yul\":2167:2185   */\n      tag_58\n      tag_59\n      jump\t// in\n    tag_58:\n        /* \"#utility.yul\":2055:2187   */\n    tag_57:\n        /* \"#utility.yul\":2347:2348   */\n      dup2\n        /* \"#utility.yul\":2279:2345   */\n      0x8000000000000000000000000000000000000000000000000000000000000000\n        /* \"#utility.yul\":2275:2349   */\n      sub\n        /* \"#utility.yul\":2272:2273   */\n      dup4\n        /* \"#utility.yul\":2268:2350   */\n      slt\n        /* \"#utility.yul\":2264:2265   */\n      0x00\n        /* \"#utility.yul\":2261:2262   */\n      dup4\n        /* \"#utility.yul\":2257:2266   */\n      slt\n        /* \"#utility.yul\":2253:2351   */\n      and\n        /* \"#utility.yul\":2250:2374   */\n      iszero\n      tag_60\n      jumpi\n        /* \"#utility.yul\":2354:2372   */\n      tag_61\n      tag_59\n      jump\t// in\n    tag_61:\n        /* \"#utility.yul\":2250:2374   */\n    tag_60:\n        /* \"#utility.yul\":2398:2399   */\n      dup3\n        /* \"#utility.yul\":2395:2396   */\n      dup3\n        /* \"#utility.yul\":2391:2400   */\n      add\n        /* \"#utility.yul\":2384:2400   */\n      swap1\n      pop\n        /* \"#utility.yul\":1881:2406   */\n      swap3\n      swap2\n      pop\n      pop\n      jump\t// out\n        /* \"#utility.yul\":2412:2939   */\n    tag_23:\n        /* \"#utility.yul\":2451:2455   */\n      0x00\n        /* \"#utility.yul\":2471:2490   */\n      tag_63\n        /* \"#utility.yul\":2488:2489   */\n      dup3\n        /* \"#utility.yul\":2471:2490   */\n      tag_40\n      jump\t// in\n    tag_63:\n        /* \"#utility.yul\":2466:2490   */\n      swap2\n      pop\n        /* \"#utility.yul\":2504:2523   */\n      tag_64\n        /* \"#utility.yul\":2521:2522   */\n      dup4\n        /* \"#utility.yul\":2504:2523   */\n      tag_40\n      jump\t// in\n    tag_64:\n        /* \"#utility.yul\":2499:2523   */\n      swap3\n      pop\n        /* \"#utility.yul\":2693:2694   */\n      dup3\n        /* \"#utility.yul\":2625:2691   */\n      0x8000000000000000000000000000000000000000000000000000000000000000\n        /* \"#utility.yul\":2621:2695   */\n      add\n        /* \"#utility.yul\":2618:2619   */\n      dup3\n        /* \"#utility.yul\":2614:2696   */\n      slt\n        /* \"#utility.yul\":2609:2610   */\n      0x00\n        /* \"#utility.yul\":2606:2607   */\n      dup5\n        /* \"#utility.yul\":2602:2611   */\n      slt\n        /* \"#utility.yul\":2595:2612   */\n      iszero\n        /* \"#utility.yul\":2591:2697   */\n      and\n        /* \"#utility.yul\":2588:2720   */\n      iszero\n      tag_65\n      jumpi\n        /* \"#utility.yul\":2700:2718   */\n      tag_66\n      tag_59\n      jump\t// in\n    tag_66:\n        /* \"#utility.yul\":2588:2720   */\n    tag_65:\n        /* \"#utility.yul\":2879:2880   */\n      dup3\n        /* \"#utility.yul\":2811:2877   */\n      0x7fffffffffffffffffffffffffffffffffffffffffffffffffffffffffffffff\n        /* \"#utility.yul\":2807:2881   */\n      add\n        /* \"#utility.yul\":2804:2805   */\n      dup3\n        /* \"#utility.yul\":2800:2882   */\n      sgt\n        /* \"#utility.yul\":2796:2797   */\n      0x00\n        /* \"#utility.yul\":2793:2794   */\n      dup5\n        /* \"#utility.yul\":2789:2798   */\n      slt\n        /* \"#utility.yul\":2785:2883   */\n      and\n        /* \"#utility.yul\":2782:2906   */\n      iszero\n      tag_67\n      jumpi\n        /* \"#utility.yul\":2886:2904   */\n      tag_68\n      tag_59\n      jump\t// in\n    tag_68:\n        /* \"#utility.yul\":2782:2906   */\n    tag_67:\n        /* \"#utility.yul\":2931:2932   */\n      dup3\n        /* \"#utility.yul\":2928:2929   */\n      dup3\n        /* \"#utility.yul\":2924:2933   */\n      sub\n        /* \"#utility.yul\":2916:2933   */\n      swap1\n      pop\n        /* \"#utility.yul\":2412:2939   */\n      swap3\n      swap2\n      pop\n      pop\n      jump\t// out\n        /* \"#utility.yul\":2945:3021   */\n    tag_40:\n        /* \"#utility.yul\":2981:2988   */\n      0x00\n        /* \"#utility.yul\":3010:3015   */\n      dup2\n        /* \"#utility.yul\":2999:3015   */\n      swap1\n      pop\n        /* \"#utility.yul\":2945:3021   */\n      swap2\n      swap1\n      pop\n      jump\t// out\n        /* \"#utility.yul\":3027:3207   */\n    tag_59:\n        /* \"#utility.yul\":3075:3152   */\n      0x4e487b7100000000000000000000000000000000000000000000000000000000\n        /* \"#utility.yul\":3072:3073   */\n      0x00\n        /* \"#utility.yul\":3065:3153   */\n      mstore\n        /* \"#utility.yul\":3172:3176   */\n      0x11\n        /* \"#utility.yul\":3169:3170   */\n      0x04\n        /* \"#utility.yul\":3162:3177   */\n      mstore\n        /* \"#utility.yul\":3196:3200   */\n      0x24\n        /* \"#utility.yul\":3193:3194   */\n      0x00\n        /* \"#utility.yul\":3186:3201   */\n      revert\n        /* \"#utility.yul\":3336:3453   */\n    tag_35:\n        /* \"#utility.yul\":3445:3446   */\n      0x00\n        /* \"#utility.yul\":3442:3443   */\n      dup1\n        /* \"#utility.yul\":3435:3447   */\n      revert\n        /* \"#utility.yul\":3459:3627   */\n    tag_46:\n        /* \"#utility.yul\":3599:3619   */\n      0x4e6f7420456e6f7567682042616c616e63650000000000000000000000000000\n        /* \"#utility.yul\":3595:3596   */\n      0x00\n        /* \"#utility.yul\":3587:3593   */\n      dup3\n        /* \"#utility.yul\":3583:3597   */\n      add\n        /* \"#utility.yul\":3576:3620   */\n      mstore\n        /* \"#utility.yul\":3459:3627   */\n      pop\n      jump\t// out\n        /* \"#utility.yul\":3633:3753   */\n    tag_31:\n        /* \"#utility.yul\":3705:3728   */\n      tag_76\n        /* \"#utility.yul\":3722:3727   */\n      dup2\n        /* \"#utility.yul\":3705:3728   */\n      tag_40\n      jump\t// in\n    tag_76:\n        /* \"#utility.yul\":3698:3703   */\n      dup2\n        /* \"#utility.yul\":3695:3729   */\n      eq\n        /* \"#utility.yul\":3685:3747   */\n      tag_77\n      jumpi\n        /* \"#utility.yul\":3743:3744   */\n      0x00\n        /* \"#utility.yul\":3740:3741   */\n      dup1\n        /* \"#utility.yul\":3733:3745   */\n      revert\n        /* \"#utility.yul\":3685:3747   */\n    tag_77:\n        /* \"#utility.yul\":3633:3753   */\n      pop\n      jump\t// out\n\n    auxdata: 0xa26469706673582212200503263b84052e3d7415bd24e0c75248faf856df32901e141661540af5a5c0a664736f6c63430008070033\n}\n",
				"bytecode": {
					"linkReferences": {},
					"object": "608060405234801561001057600080fd5b50600080819055506103bb806100276000396000f3fe608060405234801561001057600080fd5b50600436106100415760003560e01c806312065fe0146100465780637c52caa314610064578063e51ed0a014610080575b600080fd5b61004e61009c565b60405161005b9190610193565b60405180910390f35b61007e60048036038101906100799190610134565b6100a5565b005b61009a60048036038101906100959190610134565b610104565b005b60008054905090565b80600054136100e9576040517f08c379a00000000000000000000000000000000000000000000000000000000081526004016100e0906101ae565b60405180910390fd5b806000808282546100fa9190610273565b9250508190555050565b8060008082825461011591906101df565b9250508190555050565b60008135905061012e8161036e565b92915050565b60006020828403121561014a57610149610340565b5b60006101588482850161011f565b91505092915050565b61016a81610307565b82525050565b600061017d6012836101ce565b915061018882610345565b602082019050919050565b60006020820190506101a86000830184610161565b92915050565b600060208201905081810360008301526101c781610170565b9050919050565b600082825260208201905092915050565b60006101ea82610307565b91506101f583610307565b9250817f7fffffffffffffffffffffffffffffffffffffffffffffffffffffffffffffff038313600083121516156102305761022f610311565b5b817f800000000000000000000000000000000000000000000000000000000000000003831260008312161561026857610267610311565b5b828201905092915050565b600061027e82610307565b915061028983610307565b9250827f8000000000000000000000000000000000000000000000000000000000000000018212600084121516156102c4576102c3610311565b5b827f7fffffffffffffffffffffffffffffffffffffffffffffffffffffffffffffff0182136000841216156102fc576102fb610311565b5b828203905092915050565b6000819050919050565b7f4e487b7100000000000000000000000000000000000000000000000000000000600052601160045260246000fd5b600080fd5b7f4e6f7420456e6f7567682042616c616e63650000000000000000000000000000600082015250565b61037781610307565b811461038257600080fd5b5056fea26469706673582212200503263b84052e3d7415bd24e0c75248faf856df32901e141661540af5a5c0a664736f6c63430008070033",
					"opcodes": "PUSH1 0x80 PUSH1 0x40 MSTORE CALLVALUE DUP1 ISZERO PUSH2 0x10 JUMPI PUSH1 0x0 DUP1 REVERT JUMPDEST POP PUSH1 0x0 DUP1 DUP2 SWAP1 SSTORE POP PUSH2 0x3BB DUP1 PUSH2 0x27 PUSH1 0x0 CODECOPY PUSH1 0x0 RETURN INVALID PUSH1 0x80 PUSH1 0x40 MSTORE CALLVALUE DUP1 ISZERO PUSH2 0x10 JUMPI PUSH1 0x0 DUP1 REVERT JUMPDEST POP PUSH1 0x4 CALLDATASIZE LT PUSH2 0x41 JUMPI PUSH1 0x0 CALLDATALOAD PUSH1 0xE0 SHR DUP1 PUSH4 0x12065FE0 EQ PUSH2 0x46 JUMPI DUP1 PUSH4 0x7C52CAA3 EQ PUSH2 0x64 JUMPI DUP1 PUSH4 0xE51ED0A0 EQ PUSH2 0x80 JUMPI JUMPDEST PUSH1 0x0 DUP1 REVERT JUMPDEST PUSH2 0x4E PUSH2 0x9C JUMP JUMPDEST PUSH1 0x40 MLOAD PUSH2 0x5B SWAP2 SWAP1 PUSH2 0x193 JUMP JUMPDEST PUSH1 0x40 MLOAD DUP1 SWAP2 SUB SWAP1 RETURN JUMPDEST PUSH2 0x7E PUSH1 0x4 DUP1 CALLDATASIZE SUB DUP2 ADD SWAP1 PUSH2 0x79 SWAP2 SWAP1 PUSH2 0x134 JUMP JUMPDEST PUSH2 0xA5 JUMP JUMPDEST STOP JUMPDEST PUSH2 0x9A PUSH1 0x4 DUP1 CALLDATASIZE SUB DUP2 ADD SWAP1 PUSH2 0x95 SWAP2 SWAP1 PUSH2 0x134 JUMP JUMPDEST PUSH2 0x104 JUMP JUMPDEST STOP JUMPDEST PUSH1 0x0 DUP1 SLOAD SWAP1 POP SWAP1 JUMP JUMPDEST DUP1 PUSH1 0x0 SLOAD SGT PUSH2 0xE9 JUMPI PUSH1 0x40 MLOAD PUSH32 0x8C379A000000000000000000000000000000000000000000000000000000000 DUP2 MSTORE PUSH1 0x4 ADD PUSH2 0xE0 SWAP1 PUSH2 0x1AE JUMP JUMPDEST PUSH1 0x40 MLOAD DUP1 SWAP2 SUB SWAP1 REVERT JUMPDEST DUP1 PUSH1 0x0 DUP1 DUP3 DUP3 SLOAD PUSH2 0xFA SWAP2 SWAP1 PUSH2 0x273 JUMP JUMPDEST SWAP3 POP POP DUP2 SWAP1 SSTORE POP POP JUMP JUMPDEST DUP1 PUSH1 0x0 DUP1 DUP3 DUP3 SLOAD PUSH2 0x115 SWAP2 SWAP1 PUSH2 0x1DF JUMP JUMPDEST SWAP3 POP POP DUP2 SWAP1 SSTORE POP POP JUMP JUMPDEST PUSH1 0x0 DUP2 CALLDATALOAD SWAP1 POP PUSH2 0x12E DUP2 PUSH2 0x36E JUMP JUMPDEST SWAP3 SWAP2 POP POP JUMP JUMPDEST PUSH1 0x0 PUSH1 0x20 DUP3 DUP5 SUB SLT ISZERO PUSH2 0x14A JUMPI PUSH2 0x149 PUSH2 0x340 JUMP JUMPDEST JUMPDEST PUSH1 0x0 PUSH2 0x158 DUP5 DUP3 DUP6 ADD PUSH2 0x11F JUMP JUMPDEST SWAP2 POP POP SWAP3 SWAP2 POP POP JUMP JUMPDEST PUSH2 0x16A DUP2 PUSH2 0x307 JUMP JUMPDEST DUP3 MSTORE POP POP JUMP JUMPDEST PUSH1 0x0 PUSH2 0x17D PUSH1 0x12 DUP4 PUSH2 0x1CE JUMP JUMPDEST SWAP2 POP PUSH2 0x188 DUP3 PUSH2 0x345 JUMP JUMPDEST PUSH1 0x20 DUP3 ADD SWAP1 POP SWAP2 SWAP1 POP JUMP JUMPDEST PUSH1 0x0 PUSH1 0x20 DUP3 ADD SWAP1 POP PUSH2 0x1A8 PUSH1 0x0 DUP4 ADD DUP5 PUSH2 0x161 JUMP JUMPDEST SWAP3 SWAP2 POP POP JUMP JUMPDEST PUSH1 0x0 PUSH1 0x20 DUP3 ADD SWAP1 POP DUP2 DUP2 SUB PUSH1 0x0 DUP4 ADD MSTORE PUSH2 0x1C7 DUP2 PUSH2 0x170 JUMP JUMPDEST SWAP1 POP SWAP2 SWAP1 POP JUMP JUMPDEST PUSH1 0x0 DUP3 DUP3 MSTORE PUSH1 0x20 DUP3 ADD SWAP1 POP SWAP3 SWAP2 POP POP JUMP JUMPDEST PUSH1 0x0 PUSH2 0x1EA DUP3 PUSH2 0x307 JUMP JUMPDEST SWAP2 POP PUSH2 0x1F5 DUP4 PUSH2 0x307 JUMP JUMPDEST SWAP3 POP DUP2 PUSH32 0x7FFFFFFFFFFFFFFFFFFFFFFFFFFFFFFFFFFFFFFFFFFFFFFFFFFFFFFFFFFFFFFF SUB DUP4 SGT PUSH1 0x0 DUP4 SLT ISZERO AND ISZERO PUSH2 0x230 JUMPI PUSH2 0x22F PUSH2 0x311 JUMP JUMPDEST JUMPDEST DUP2 PUSH32 0x8000000000000000000000000000000000000000000000000000000000000000 SUB DUP4 SLT PUSH1 0x0 DUP4 SLT AND ISZERO PUSH2 0x268 JUMPI PUSH2 0x267 PUSH2 0x311 JUMP JUMPDEST JUMPDEST DUP3 DUP3 ADD SWAP1 POP SWAP3 SWAP2 POP POP JUMP JUMPDEST PUSH1 0x0 PUSH2 0x27E DUP3 PUSH2 0x307 JUMP JUMPDEST SWAP2 POP PUSH2 0x289 DUP4 PUSH2 0x307 JUMP JUMPDEST SWAP3 POP DUP3 PUSH32 0x8000000000000000000000000000000000000000000000000000000000000000 ADD DUP3 SLT PUSH1 0x0 DUP5 SLT ISZERO AND ISZERO PUSH2 0x2C4 JUMPI PUSH2 0x2C3 PUSH2 0x311 JUMP JUMPDEST JUMPDEST DUP3 PUSH32 0x7FFFFFFFFFFFFFFFFFFFFFFFFFFFFFFFFFFFFFFFFFFFFFFFFFFFFFFFFFFFFFFF ADD DUP3 SGT PUSH1 0x0 DUP5 SLT AND ISZERO PUSH2 0x2FC JUMPI PUSH2 0x2FB PUSH2 0x311 JUMP JUMPDEST JUMPDEST DUP3 DUP3 SUB SWAP1 POP SWAP3 SWAP2 POP POP JUMP JUMPDEST PUSH1 0x0 DUP2 SWAP1 POP SWAP2 SWAP1 POP JUMP JUMPDEST PUSH32 0x4E487B7100000000000000000000000000000000000000000000000000000000 PUSH1 0x0 MSTORE PUSH1 0x11 PUSH1 0x4 MSTORE PUSH1 0x24 PUSH1 0x0 REVERT JUMPDEST PUSH1 0x0 DUP1 REVERT JUMPDEST PUSH32 0x4E6F7420456E6F7567682042616C616E63650000000000000000000000000000 PUSH1 0x0 DUP3 ADD MSTORE POP JUMP JUMPDEST PUSH2 0x377 DUP2 PUSH2 0x307 JUMP JUMPDEST DUP2 EQ PUSH2 0x382 JUMPI PUSH1 0x0 DUP1 REVERT JUMPDEST POP JUMP INVALID LOG2 PUSH5 0x6970667358 0x22 SLT KECCAK256 SDIV SUB 0x26 EXTCODESIZE DUP5 SDIV 0x2E RETURNDATASIZE PUSH21 0x15BD24E0C75248FAF856DF32901E141661540AF5A5 0xC0 0xA6 PUSH5 0x736F6C6343 STOP ADDMOD SMOD STOP CALLER "
				},
				"gasEstimates": {
					"creation": {
						"codeDepositCost": "191000",
						"executionCost": "5246",
						"totalCost": "196246"
					},
					"external": {
						"depositBalance(int256)": "infinite",
						"getBalance()": "2415",
						"withdrawBalance(int256)": "infinite"
					}
				},
				"methodIdentifiers": {
					"depositBalance(int256)": "e51ed0a0",
					"getBalance()": "12065fe0",
					"withdrawBalance(int256)": "7c52caa3"
				}
			},
			"storageLayout": {
				"storage": [
					{
						"astId": 3,
						"contract": "PHCoin.sol:PHCoin",
						"label": "balance",
						"offset": 0,
						"slot": "0",
						"type": "t_int256"
					}
				],
				"types": {
					"t_int256": {
						"encoding": "inplace",
						"label": "int256",
						"numberOfBytes": "32"
					}
				}
			},
			"userdoc": {
				"kind": "user",
				"methods": {},
				"version": 1
			}
		}
	}
}