{
	"SampleToken.sol": {
		"SampleToken": {
			"abi": [
				{
					"inputs": [
						{
							"internalType": "uint256",
							"name": "total",
							"type": "uint256"
						}
					],
					"stateMutability": "nonpayable",
					"type": "constructor"
				},
				{
					"anonymous": false,
					"inputs": [
						{
							"indexed": true,
							"internalType": "address",
							"name": "from",
							"type": "address"
						},
						{
							"indexed": true,
							"internalType": "address",
							"name": "to",
							"type": "address"
						},
						{
							"indexed": false,
							"internalType": "uint256",
							"name": "value",
							"type": "uint256"
						}
					],
					"name": "Transfer",
					"type": "event"
				},
				{
					"inputs": [
						{
							"internalType": "address",
							"name": "tokenOwner",
							"type": "address"
						}
					],
					"name": "balanceOf",
					"outputs": [
						{
							"internalType": "uint256",
							"name": "",
							"type": "uint256"
						}
					],
					"stateMutability": "view",
					"type": "function"
				},
				{
					"inputs": [],
					"name": "name",
					"outputs": [
						{
							"internalType": "string",
							"name": "",
							"type": "string"
						}
					],
					"stateMutability": "view",
					"type": "function"
				},
				{
					"inputs": [],
					"name": "totalSupply",
					"outputs": [
						{
							"internalType": "uint256",
							"name": "",
							"type": "uint256"
						}
					],
					"stateMutability": "view",
					"type": "function"
				},
				{
					"inputs": [
						{
							"internalType": "address",
							"name": "receiver",
							"type": "address"
						},
						{
							"internalType": "uint256",
							"name": "numTokens",
							"type": "uint256"
						}
					],
					"name": "transfer",
					"outputs": [
						{
							"internalType": "bool",
							"name": "",
							"type": "bool"
						}
					],
					"stateMutability": "nonpayable",
					"type": "function"
				}
			],
			"devdoc": {
				"kind": "dev",
				"methods": {},
				"version": 1
			},
			"evm": {
				"assembly": "    /* \"SampleToken.sol\":385:1317  contract SampleToken is IERC20 {\r... */\n  mstore(0x40, 0x80)\n    /* \"SampleToken.sol\":588:700  constructor(uint256 total) {\r... */\n  callvalue\n  dup1\n  iszero\n  tag_1\n  jumpi\n  0x00\n  dup1\n  revert\ntag_1:\n  pop\n  mload(0x40)\n  sub(codesize, bytecodeSize)\n  dup1\n  bytecodeSize\n  dup4\n  codecopy\n  dup2\n  dup2\n  add\n  0x40\n  mstore\n  dup2\n  add\n  swap1\n  tag_2\n  swap2\n  swap1\n  tag_3\n  jump\t// in\ntag_2:\n    /* \"SampleToken.sol\":641:646  total */\n  dup1\n    /* \"SampleToken.sol\":626:638  totalSupply_ */\n  0x01\n    /* \"SampleToken.sol\":626:646  totalSupply_ = total */\n  dup2\n  swap1\n  sstore\n  pop\n    /* \"SampleToken.sol\":680:692  totalSupply_ */\n  sload(0x01)\n    /* \"SampleToken.sol\":657:665  balances */\n  0x00\n    /* \"SampleToken.sol\":657:677  balances[msg.sender] */\n  dup1\n    /* \"SampleToken.sol\":666:676  msg.sender */\n  caller\n    /* \"SampleToken.sol\":657:677  balances[msg.sender] */\n  0xffffffffffffffffffffffffffffffffffffffff\n  and\n  0xffffffffffffffffffffffffffffffffffffffff\n  and\n  dup2\n  mstore\n  0x20\n  add\n  swap1\n  dup2\n  mstore\n  0x20\n  add\n  0x00\n  keccak256\n    /* \"SampleToken.sol\":657:692  balances[msg.sender] = totalSupply_ */\n  dup2\n  swap1\n  sstore\n  pop\n    /* \"SampleToken.sol\":588:700  constructor(uint256 total) {\r... */\n  pop\n    /* \"SampleToken.sol\":385:1317  contract SampleToken is IERC20 {\r... */\n  jump(tag_6)\n    /* \"#utility.yul\":7:150   */\ntag_8:\n    /* \"#utility.yul\":64:69   */\n  0x00\n    /* \"#utility.yul\":95:101   */\n  dup2\n    /* \"#utility.yul\":89:102   */\n  mload\n    /* \"#utility.yul\":80:102   */\n  swap1\n  pop\n    /* \"#utility.yul\":111:144   */\n  tag_10\n    /* \"#utility.yul\":138:143   */\n  dup2\n    /* \"#utility.yul\":111:144   */\n  tag_11\n  jump\t// in\ntag_10:\n    /* \"#utility.yul\":7:150   */\n  swap3\n  swap2\n  pop\n  pop\n  jump\t// out\n    /* \"#utility.yul\":156:507   */\ntag_3:\n    /* \"#utility.yul\":226:232   */\n  0x00\n    /* \"#utility.yul\":275:277   */\n  0x20\n    /* \"#utility.yul\":263:272   */\n  dup3\n    /* \"#utility.yul\":254:261   */\n  dup5\n    /* \"#utility.yul\":250:273   */\n  sub\n    /* \"#utility.yul\":246:278   */\n  slt\n    /* \"#utility.yul\":243:362   */\n  iszero\n  tag_13\n  jumpi\n    /* \"#utility.yul\":281:360   */\n  tag_14\n  tag_15\n  jump\t// in\ntag_14:\n    /* \"#utility.yul\":243:362   */\ntag_13:\n    /* \"#utility.yul\":401:402   */\n  0x00\n    /* \"#utility.yul\":426:490   */\n  tag_16\n    /* \"#utility.yul\":482:489   */\n  dup5\n    /* \"#utility.yul\":473:479   */\n  dup3\n    /* \"#utility.yul\":462:471   */\n  dup6\n    /* \"#utility.yul\":458:480   */\n  add\n    /* \"#utility.yul\":426:490   */\n  tag_8\n  jump\t// in\ntag_16:\n    /* \"#utility.yul\":416:490   */\n  swap2\n  pop\n    /* \"#utility.yul\":372:500   */\n  pop\n    /* \"#utility.yul\":156:507   */\n  swap3\n  swap2\n  pop\n  pop\n  jump\t// out\n    /* \"#utility.yul\":594:671   */\ntag_19:\n    /* \"#utility.yul\":631:638   */\n  0x00\n    /* \"#utility.yul\":660:665   */\n  dup2\n    /* \"#utility.yul\":649:665   */\n  swap1\n  pop\n    /* \"#utility.yul\":594:671   */\n  swap2\n  swap1\n  pop\n  jump\t// out\n    /* \"#utility.yul\":800:917   */\ntag_15:\n    /* \"#utility.yul\":909:910   */\n  0x00\n    /* \"#utility.yul\":906:907   */\n  dup1\n    /* \"#utility.yul\":899:911   */\n  revert\n    /* \"#utility.yul\":923:1045   */\ntag_11:\n    /* \"#utility.yul\":996:1020   */\n  tag_25\n    /* \"#utility.yul\":1014:1019   */\n  dup2\n    /* \"#utility.yul\":996:1020   */\n  tag_19\n  jump\t// in\ntag_25:\n    /* \"#utility.yul\":989:994   */\n  dup2\n    /* \"#utility.yul\":986:1021   */\n  eq\n    /* \"#utility.yul\":976:1039   */\n  tag_26\n  jumpi\n    /* \"#utility.yul\":1035:1036   */\n  0x00\n    /* \"#utility.yul\":1032:1033   */\n  dup1\n    /* \"#utility.yul\":1025:1037   */\n  revert\n    /* \"#utility.yul\":976:1039   */\ntag_26:\n    /* \"#utility.yul\":923:1045   */\n  pop\n  jump\t// out\n    /* \"SampleToken.sol\":385:1317  contract SampleToken is IERC20 {\r... */\ntag_6:\n  dataSize(sub_0)\n  dup1\n  dataOffset(sub_0)\n  0x00\n  codecopy\n  0x00\n  return\nstop\n\nsub_0: assembly {\n        /* \"SampleToken.sol\":385:1317  contract SampleToken is IERC20 {\r... */\n      mstore(0x40, 0x80)\n      callvalue\n      dup1\n      iszero\n      tag_1\n      jumpi\n      0x00\n      dup1\n      revert\n    tag_1:\n      pop\n      jumpi(tag_2, lt(calldatasize, 0x04))\n      shr(0xe0, calldataload(0x00))\n      dup1\n      0x06fdde03\n      eq\n      tag_3\n      jumpi\n      dup1\n      0x18160ddd\n      eq\n      tag_4\n      jumpi\n      dup1\n      0x70a08231\n      eq\n      tag_5\n      jumpi\n      dup1\n      0xa9059cbb\n      eq\n      tag_6\n      jumpi\n    tag_2:\n      0x00\n      dup1\n      revert\n        /* \"SampleToken.sol\":458:501  string public constant name = \"SampleToken\" */\n    tag_3:\n      tag_7\n      tag_8\n      jump\t// in\n    tag_7:\n      mload(0x40)\n      tag_9\n      swap2\n      swap1\n      tag_10\n      jump\t// in\n    tag_9:\n      mload(0x40)\n      dup1\n      swap2\n      sub\n      swap1\n      return\n        /* \"SampleToken.sol\":712:812  function totalSupply() public override view returns (uint256) {\r... */\n    tag_4:\n      tag_11\n      tag_12\n      jump\t// in\n    tag_11:\n      mload(0x40)\n      tag_13\n      swap2\n      swap1\n      tag_14\n      jump\t// in\n    tag_13:\n      mload(0x40)\n      dup1\n      swap2\n      sub\n      swap1\n      return\n        /* \"SampleToken.sol\":820:944  function balanceOf(address tokenOwner) public override view returns (uint256) {\r... */\n    tag_5:\n      tag_15\n      0x04\n      dup1\n      calldatasize\n      sub\n      dup2\n      add\n      swap1\n      tag_16\n      swap2\n      swap1\n      tag_17\n      jump\t// in\n    tag_16:\n      tag_18\n      jump\t// in\n    tag_15:\n      mload(0x40)\n      tag_19\n      swap2\n      swap1\n      tag_14\n      jump\t// in\n    tag_19:\n      mload(0x40)\n      dup1\n      swap2\n      sub\n      swap1\n      return\n        /* \"SampleToken.sol\":952:1312  function transfer(address receiver, uint256 numTokens) public override returns (bool) {\r... */\n    tag_6:\n      tag_20\n      0x04\n      dup1\n      calldatasize\n      sub\n      dup2\n      add\n      swap1\n      tag_21\n      swap2\n      swap1\n      tag_22\n      jump\t// in\n    tag_21:\n      tag_23\n      jump\t// in\n    tag_20:\n      mload(0x40)\n      tag_24\n      swap2\n      swap1\n      tag_25\n      jump\t// in\n    tag_24:\n      mload(0x40)\n      dup1\n      swap2\n      sub\n      swap1\n      return\n        /* \"SampleToken.sol\":458:501  string public constant name = \"SampleToken\" */\n    tag_8:\n      mload(0x40)\n      dup1\n      0x40\n      add\n      0x40\n      mstore\n      dup1\n      0x0b\n      dup2\n      mstore\n      0x20\n      add\n      0x53616d706c65546f6b656e000000000000000000000000000000000000000000\n      dup2\n      mstore\n      pop\n      dup2\n      jump\t// out\n        /* \"SampleToken.sol\":712:812  function totalSupply() public override view returns (uint256) {\r... */\n    tag_12:\n        /* \"SampleToken.sol\":765:772  uint256 */\n      0x00\n        /* \"SampleToken.sol\":792:804  totalSupply_ */\n      sload(0x01)\n        /* \"SampleToken.sol\":785:804  return totalSupply_ */\n      swap1\n      pop\n        /* \"SampleToken.sol\":712:812  function totalSupply() public override view returns (uint256) {\r... */\n      swap1\n      jump\t// out\n        /* \"SampleToken.sol\":820:944  function balanceOf(address tokenOwner) public override view returns (uint256) {\r... */\n    tag_18:\n        /* \"SampleToken.sol\":889:896  uint256 */\n      0x00\n        /* \"SampleToken.sol\":916:924  balances */\n      dup1\n        /* \"SampleToken.sol\":916:936  balances[tokenOwner] */\n      0x00\n        /* \"SampleToken.sol\":925:935  tokenOwner */\n      dup4\n        /* \"SampleToken.sol\":916:936  balances[tokenOwner] */\n      0xffffffffffffffffffffffffffffffffffffffff\n      and\n      0xffffffffffffffffffffffffffffffffffffffff\n      and\n      dup2\n      mstore\n      0x20\n      add\n      swap1\n      dup2\n      mstore\n      0x20\n      add\n      0x00\n      keccak256\n      sload\n        /* \"SampleToken.sol\":909:936  return balances[tokenOwner] */\n      swap1\n      pop\n        /* \"SampleToken.sol\":820:944  function balanceOf(address tokenOwner) public override view returns (uint256) {\r... */\n      swap2\n      swap1\n      pop\n      jump\t// out\n        /* \"SampleToken.sol\":952:1312  function transfer(address receiver, uint256 numTokens) public override returns (bool) {\r... */\n    tag_23:\n        /* \"SampleToken.sol\":1032:1036  bool */\n      0x00\n        /* \"SampleToken.sol\":1070:1078  balances */\n      dup1\n        /* \"SampleToken.sol\":1070:1090  balances[msg.sender] */\n      0x00\n        /* \"SampleToken.sol\":1079:1089  msg.sender */\n      caller\n        /* \"SampleToken.sol\":1070:1090  balances[msg.sender] */\n      0xffffffffffffffffffffffffffffffffffffffff\n      and\n      0xffffffffffffffffffffffffffffffffffffffff\n      and\n      dup2\n      mstore\n      0x20\n      add\n      swap1\n      dup2\n      mstore\n      0x20\n      add\n      0x00\n      keccak256\n      sload\n        /* \"SampleToken.sol\":1057:1066  numTokens */\n      dup3\n        /* \"SampleToken.sol\":1057:1090  numTokens <= balances[msg.sender] */\n      gt\n      iszero\n        /* \"SampleToken.sol\":1049:1091  require(numTokens <= balances[msg.sender]) */\n      tag_29\n      jumpi\n      0x00\n      dup1\n      revert\n    tag_29:\n        /* \"SampleToken.sol\":1125:1160  balances[msg.sender].sub(numTokens) */\n      tag_30\n        /* \"SampleToken.sol\":1150:1159  numTokens */\n      dup3\n        /* \"SampleToken.sol\":1125:1133  balances */\n      0x00\n        /* \"SampleToken.sol\":1125:1145  balances[msg.sender] */\n      dup1\n        /* \"SampleToken.sol\":1134:1144  msg.sender */\n      caller\n        /* \"SampleToken.sol\":1125:1145  balances[msg.sender] */\n      0xffffffffffffffffffffffffffffffffffffffff\n      and\n      0xffffffffffffffffffffffffffffffffffffffff\n      and\n      dup2\n      mstore\n      0x20\n      add\n      swap1\n      dup2\n      mstore\n      0x20\n      add\n      0x00\n      keccak256\n      sload\n        /* \"SampleToken.sol\":1125:1149  balances[msg.sender].sub */\n      tag_31\n      swap1\n        /* \"SampleToken.sol\":1125:1160  balances[msg.sender].sub(numTokens) */\n      swap2\n      swap1\n      0xffffffff\n      and\n      jump\t// in\n    tag_30:\n        /* \"SampleToken.sol\":1102:1110  balances */\n      0x00\n        /* \"SampleToken.sol\":1102:1122  balances[msg.sender] */\n      dup1\n        /* \"SampleToken.sol\":1111:1121  msg.sender */\n      caller\n        /* \"SampleToken.sol\":1102:1122  balances[msg.sender] */\n      0xffffffffffffffffffffffffffffffffffffffff\n      and\n      0xffffffffffffffffffffffffffffffffffffffff\n      and\n      dup2\n      mstore\n      0x20\n      add\n      swap1\n      dup2\n      mstore\n      0x20\n      add\n      0x00\n      keccak256\n        /* \"SampleToken.sol\":1102:1160  balances[msg.sender] = balances[msg.sender].sub(numTokens) */\n      dup2\n      swap1\n      sstore\n      pop\n        /* \"SampleToken.sol\":1192:1225  balances[receiver].add(numTokens) */\n      tag_32\n        /* \"SampleToken.sol\":1215:1224  numTokens */\n      dup3\n        /* \"SampleToken.sol\":1192:1200  balances */\n      0x00\n        /* \"SampleToken.sol\":1192:1210  balances[receiver] */\n      dup1\n        /* \"SampleToken.sol\":1201:1209  receiver */\n      dup7\n        /* \"SampleToken.sol\":1192:1210  balances[receiver] */\n      0xffffffffffffffffffffffffffffffffffffffff\n      and\n      0xffffffffffffffffffffffffffffffffffffffff\n      and\n      dup2\n      mstore\n      0x20\n      add\n      swap1\n      dup2\n      mstore\n      0x20\n      add\n      0x00\n      keccak256\n      sload\n        /* \"SampleToken.sol\":1192:1214  balances[receiver].add */\n      tag_33\n      swap1\n        /* \"SampleToken.sol\":1192:1225  balances[receiver].add(numTokens) */\n      swap2\n      swap1\n      0xffffffff\n      and\n      jump\t// in\n    tag_32:\n        /* \"SampleToken.sol\":1171:1179  balances */\n      0x00\n        /* \"SampleToken.sol\":1171:1189  balances[receiver] */\n      dup1\n        /* \"SampleToken.sol\":1180:1188  receiver */\n      dup6\n        /* \"SampleToken.sol\":1171:1189  balances[receiver] */\n      0xffffffffffffffffffffffffffffffffffffffff\n      and\n      0xffffffffffffffffffffffffffffffffffffffff\n      and\n      dup2\n      mstore\n      0x20\n      add\n      swap1\n      dup2\n      mstore\n      0x20\n      add\n      0x00\n      keccak256\n        /* \"SampleToken.sol\":1171:1225  balances[receiver] = balances[receiver].add(numTokens) */\n      dup2\n      swap1\n      sstore\n      pop\n        /* \"SampleToken.sol\":1262:1270  receiver */\n      dup3\n        /* \"SampleToken.sol\":1241:1282  Transfer(msg.sender, receiver, numTokens) */\n      0xffffffffffffffffffffffffffffffffffffffff\n      and\n        /* \"SampleToken.sol\":1250:1260  msg.sender */\n      caller\n        /* \"SampleToken.sol\":1241:1282  Transfer(msg.sender, receiver, numTokens) */\n      0xffffffffffffffffffffffffffffffffffffffff\n      and\n      0xddf252ad1be2c89b69c2b068fc378daa952ba7f163c4a11628f55a4df523b3ef\n        /* \"SampleToken.sol\":1272:1281  numTokens */\n      dup5\n        /* \"SampleToken.sol\":1241:1282  Transfer(msg.sender, receiver, numTokens) */\n      mload(0x40)\n      tag_34\n      swap2\n      swap1\n      tag_14\n      jump\t// in\n    tag_34:\n      mload(0x40)\n      dup1\n      swap2\n      sub\n      swap1\n      log3\n        /* \"SampleToken.sol\":1300:1304  true */\n      0x01\n        /* \"SampleToken.sol\":1293:1304  return true */\n      swap1\n      pop\n        /* \"SampleToken.sol\":952:1312  function transfer(address receiver, uint256 numTokens) public override returns (bool) {\r... */\n      swap3\n      swap2\n      pop\n      pop\n      jump\t// out\n        /* \"SampleToken.sol\":1345:1465  function sub(uint256 a, uint256 b) internal pure returns (uint256) {\r... */\n    tag_31:\n        /* \"SampleToken.sol\":1403:1410  uint256 */\n      0x00\n        /* \"SampleToken.sol\":1434:1435  a */\n      dup3\n        /* \"SampleToken.sol\":1429:1430  b */\n      dup3\n        /* \"SampleToken.sol\":1429:1435  b <= a */\n      gt\n      iszero\n        /* \"SampleToken.sol\":1421:1436  require(b <= a) */\n      tag_36\n      jumpi\n      0x00\n      dup1\n      revert\n    tag_36:\n        /* \"SampleToken.sol\":1456:1457  b */\n      dup2\n        /* \"SampleToken.sol\":1452:1453  a */\n      dup4\n        /* \"SampleToken.sol\":1452:1457  a - b */\n      tag_37\n      swap2\n      swap1\n      tag_38\n      jump\t// in\n    tag_37:\n        /* \"SampleToken.sol\":1445:1457  return a - b */\n      swap1\n      pop\n        /* \"SampleToken.sol\":1345:1465  function sub(uint256 a, uint256 b) internal pure returns (uint256) {\r... */\n      swap3\n      swap2\n      pop\n      pop\n      jump\t// out\n        /* \"SampleToken.sol\":1473:1615  function add(uint256 a, uint256 b) internal pure returns (uint256) {\r... */\n    tag_33:\n        /* \"SampleToken.sol\":1531:1538  uint256 */\n      0x00\n        /* \"SampleToken.sol\":1549:1558  uint256 c */\n      dup1\n        /* \"SampleToken.sol\":1565:1566  b */\n      dup3\n        /* \"SampleToken.sol\":1561:1562  a */\n      dup5\n        /* \"SampleToken.sol\":1561:1566  a + b */\n      tag_40\n      swap2\n      swap1\n      tag_41\n      jump\t// in\n    tag_40:\n        /* \"SampleToken.sol\":1549:1566  uint256 c = a + b */\n      swap1\n      pop\n        /* \"SampleToken.sol\":1588:1589  a */\n      dup4\n        /* \"SampleToken.sol\":1583:1584  c */\n      dup2\n        /* \"SampleToken.sol\":1583:1589  c >= a */\n      lt\n      iszero\n        /* \"SampleToken.sol\":1575:1590  require(c >= a) */\n      tag_42\n      jumpi\n      0x00\n      dup1\n      revert\n    tag_42:\n        /* \"SampleToken.sol\":1606:1607  c */\n      dup1\n        /* \"SampleToken.sol\":1599:1607  return c */\n      swap2\n      pop\n      pop\n        /* \"SampleToken.sol\":1473:1615  function add(uint256 a, uint256 b) internal pure returns (uint256) {\r... */\n      swap3\n      swap2\n      pop\n      pop\n      jump\t// out\n        /* \"#utility.yul\":7:146   */\n    tag_44:\n        /* \"#utility.yul\":53:58   */\n      0x00\n        /* \"#utility.yul\":91:97   */\n      dup2\n        /* \"#utility.yul\":78:98   */\n      calldataload\n        /* \"#utility.yul\":69:98   */\n      swap1\n      pop\n        /* \"#utility.yul\":107:140   */\n      tag_46\n        /* \"#utility.yul\":134:139   */\n      dup2\n        /* \"#utility.yul\":107:140   */\n      tag_47\n      jump\t// in\n    tag_46:\n        /* \"#utility.yul\":7:146   */\n      swap3\n      swap2\n      pop\n      pop\n      jump\t// out\n        /* \"#utility.yul\":152:291   */\n    tag_48:\n        /* \"#utility.yul\":198:203   */\n      0x00\n        /* \"#utility.yul\":236:242   */\n      dup2\n        /* \"#utility.yul\":223:243   */\n      calldataload\n        /* \"#utility.yul\":214:243   */\n      swap1\n      pop\n        /* \"#utility.yul\":252:285   */\n      tag_50\n        /* \"#utility.yul\":279:284   */\n      dup2\n        /* \"#utility.yul\":252:285   */\n      tag_51\n      jump\t// in\n    tag_50:\n        /* \"#utility.yul\":152:291   */\n      swap3\n      swap2\n      pop\n      pop\n      jump\t// out\n        /* \"#utility.yul\":297:626   */\n    tag_17:\n        /* \"#utility.yul\":356:362   */\n      0x00\n        /* \"#utility.yul\":405:407   */\n      0x20\n        /* \"#utility.yul\":393:402   */\n      dup3\n        /* \"#utility.yul\":384:391   */\n      dup5\n        /* \"#utility.yul\":380:403   */\n      sub\n        /* \"#utility.yul\":376:408   */\n      slt\n        /* \"#utility.yul\":373:492   */\n      iszero\n      tag_53\n      jumpi\n        /* \"#utility.yul\":411:490   */\n      tag_54\n      tag_55\n      jump\t// in\n    tag_54:\n        /* \"#utility.yul\":373:492   */\n    tag_53:\n        /* \"#utility.yul\":531:532   */\n      0x00\n        /* \"#utility.yul\":556:609   */\n      tag_56\n        /* \"#utility.yul\":601:608   */\n      dup5\n        /* \"#utility.yul\":592:598   */\n      dup3\n        /* \"#utility.yul\":581:590   */\n      dup6\n        /* \"#utility.yul\":577:599   */\n      add\n        /* \"#utility.yul\":556:609   */\n      tag_44\n      jump\t// in\n    tag_56:\n        /* \"#utility.yul\":546:609   */\n      swap2\n      pop\n        /* \"#utility.yul\":502:619   */\n      pop\n        /* \"#utility.yul\":297:626   */\n      swap3\n      swap2\n      pop\n      pop\n      jump\t// out\n        /* \"#utility.yul\":632:1106   */\n    tag_22:\n        /* \"#utility.yul\":700:706   */\n      0x00\n        /* \"#utility.yul\":708:714   */\n      dup1\n        /* \"#utility.yul\":757:759   */\n      0x40\n        /* \"#utility.yul\":745:754   */\n      dup4\n        /* \"#utility.yul\":736:743   */\n      dup6\n        /* \"#utility.yul\":732:755   */\n      sub\n        /* \"#utility.yul\":728:760   */\n      slt\n        /* \"#utility.yul\":725:844   */\n      iszero\n      tag_58\n      jumpi\n        /* \"#utility.yul\":763:842   */\n      tag_59\n      tag_55\n      jump\t// in\n    tag_59:\n        /* \"#utility.yul\":725:844   */\n    tag_58:\n        /* \"#utility.yul\":883:884   */\n      0x00\n        /* \"#utility.yul\":908:961   */\n      tag_60\n        /* \"#utility.yul\":953:960   */\n      dup6\n        /* \"#utility.yul\":944:950   */\n      dup3\n        /* \"#utility.yul\":933:942   */\n      dup7\n        /* \"#utility.yul\":929:951   */\n      add\n        /* \"#utility.yul\":908:961   */\n      tag_44\n      jump\t// in\n    tag_60:\n        /* \"#utility.yul\":898:961   */\n      swap3\n      pop\n        /* \"#utility.yul\":854:971   */\n      pop\n        /* \"#utility.yul\":1010:1012   */\n      0x20\n        /* \"#utility.yul\":1036:1089   */\n      tag_61\n        /* \"#utility.yul\":1081:1088   */\n      dup6\n        /* \"#utility.yul\":1072:1078   */\n      dup3\n        /* \"#utility.yul\":1061:1070   */\n      dup7\n        /* \"#utility.yul\":1057:1079   */\n      add\n        /* \"#utility.yul\":1036:1089   */\n      tag_48\n      jump\t// in\n    tag_61:\n        /* \"#utility.yul\":1026:1089   */\n      swap2\n      pop\n        /* \"#utility.yul\":981:1099   */\n      pop\n        /* \"#utility.yul\":632:1106   */\n      swap3\n      pop\n      swap3\n      swap1\n      pop\n      jump\t// out\n        /* \"#utility.yul\":1112:1221   */\n    tag_62:\n        /* \"#utility.yul\":1193:1214   */\n      tag_64\n        /* \"#utility.yul\":1208:1213   */\n      dup2\n        /* \"#utility.yul\":1193:1214   */\n      tag_65\n      jump\t// in\n    tag_64:\n        /* \"#utility.yul\":1188:1191   */\n      dup3\n        /* \"#utility.yul\":1181:1215   */\n      mstore\n        /* \"#utility.yul\":1112:1221   */\n      pop\n      pop\n      jump\t// out\n        /* \"#utility.yul\":1227:1591   */\n    tag_66:\n        /* \"#utility.yul\":1315:1318   */\n      0x00\n        /* \"#utility.yul\":1343:1382   */\n      tag_68\n        /* \"#utility.yul\":1376:1381   */\n      dup3\n        /* \"#utility.yul\":1343:1382   */\n      tag_69\n      jump\t// in\n    tag_68:\n        /* \"#utility.yul\":1398:1469   */\n      tag_70\n        /* \"#utility.yul\":1462:1468   */\n      dup2\n        /* \"#utility.yul\":1457:1460   */\n      dup6\n        /* \"#utility.yul\":1398:1469   */\n      tag_71\n      jump\t// in\n    tag_70:\n        /* \"#utility.yul\":1391:1469   */\n      swap4\n      pop\n        /* \"#utility.yul\":1478:1530   */\n      tag_72\n        /* \"#utility.yul\":1523:1529   */\n      dup2\n        /* \"#utility.yul\":1518:1521   */\n      dup6\n        /* \"#utility.yul\":1511:1515   */\n      0x20\n        /* \"#utility.yul\":1504:1509   */\n      dup7\n        /* \"#utility.yul\":1500:1516   */\n      add\n        /* \"#utility.yul\":1478:1530   */\n      tag_73\n      jump\t// in\n    tag_72:\n        /* \"#utility.yul\":1555:1584   */\n      tag_74\n        /* \"#utility.yul\":1577:1583   */\n      dup2\n        /* \"#utility.yul\":1555:1584   */\n      tag_75\n      jump\t// in\n    tag_74:\n        /* \"#utility.yul\":1550:1553   */\n      dup5\n        /* \"#utility.yul\":1546:1585   */\n      add\n        /* \"#utility.yul\":1539:1585   */\n      swap2\n      pop\n        /* \"#utility.yul\":1319:1591   */\n      pop\n        /* \"#utility.yul\":1227:1591   */\n      swap3\n      swap2\n      pop\n      pop\n      jump\t// out\n        /* \"#utility.yul\":1597:1715   */\n    tag_76:\n        /* \"#utility.yul\":1684:1708   */\n      tag_78\n        /* \"#utility.yul\":1702:1707   */\n      dup2\n        /* \"#utility.yul\":1684:1708   */\n      tag_79\n      jump\t// in\n    tag_78:\n        /* \"#utility.yul\":1679:1682   */\n      dup3\n        /* \"#utility.yul\":1672:1709   */\n      mstore\n        /* \"#utility.yul\":1597:1715   */\n      pop\n      pop\n      jump\t// out\n        /* \"#utility.yul\":1721:1931   */\n    tag_25:\n        /* \"#utility.yul\":1808:1812   */\n      0x00\n        /* \"#utility.yul\":1846:1848   */\n      0x20\n        /* \"#utility.yul\":1835:1844   */\n      dup3\n        /* \"#utility.yul\":1831:1849   */\n      add\n        /* \"#utility.yul\":1823:1849   */\n      swap1\n      pop\n        /* \"#utility.yul\":1859:1924   */\n      tag_81\n        /* \"#utility.yul\":1921:1922   */\n      0x00\n        /* \"#utility.yul\":1910:1919   */\n      dup4\n        /* \"#utility.yul\":1906:1923   */\n      add\n        /* \"#utility.yul\":1897:1903   */\n      dup5\n        /* \"#utility.yul\":1859:1924   */\n      tag_62\n      jump\t// in\n    tag_81:\n        /* \"#utility.yul\":1721:1931   */\n      swap3\n      swap2\n      pop\n      pop\n      jump\t// out\n        /* \"#utility.yul\":1937:2250   */\n    tag_10:\n        /* \"#utility.yul\":2050:2054   */\n      0x00\n        /* \"#utility.yul\":2088:2090   */\n      0x20\n        /* \"#utility.yul\":2077:2086   */\n      dup3\n        /* \"#utility.yul\":2073:2091   */\n      add\n        /* \"#utility.yul\":2065:2091   */\n      swap1\n      pop\n        /* \"#utility.yul\":2137:2146   */\n      dup2\n        /* \"#utility.yul\":2131:2135   */\n      dup2\n        /* \"#utility.yul\":2127:2147   */\n      sub\n        /* \"#utility.yul\":2123:2124   */\n      0x00\n        /* \"#utility.yul\":2112:2121   */\n      dup4\n        /* \"#utility.yul\":2108:2125   */\n      add\n        /* \"#utility.yul\":2101:2148   */\n      mstore\n        /* \"#utility.yul\":2165:2243   */\n      tag_83\n        /* \"#utility.yul\":2238:2242   */\n      dup2\n        /* \"#utility.yul\":2229:2235   */\n      dup5\n        /* \"#utility.yul\":2165:2243   */\n      tag_66\n      jump\t// in\n    tag_83:\n        /* \"#utility.yul\":2157:2243   */\n      swap1\n      pop\n        /* \"#utility.yul\":1937:2250   */\n      swap3\n      swap2\n      pop\n      pop\n      jump\t// out\n        /* \"#utility.yul\":2256:2478   */\n    tag_14:\n        /* \"#utility.yul\":2349:2353   */\n      0x00\n        /* \"#utility.yul\":2387:2389   */\n      0x20\n        /* \"#utility.yul\":2376:2385   */\n      dup3\n        /* \"#utility.yul\":2372:2390   */\n      add\n        /* \"#utility.yul\":2364:2390   */\n      swap1\n      pop\n        /* \"#utility.yul\":2400:2471   */\n      tag_85\n        /* \"#utility.yul\":2468:2469   */\n      0x00\n        /* \"#utility.yul\":2457:2466   */\n      dup4\n        /* \"#utility.yul\":2453:2470   */\n      add\n        /* \"#utility.yul\":2444:2450   */\n      dup5\n        /* \"#utility.yul\":2400:2471   */\n      tag_76\n      jump\t// in\n    tag_85:\n        /* \"#utility.yul\":2256:2478   */\n      swap3\n      swap2\n      pop\n      pop\n      jump\t// out\n        /* \"#utility.yul\":2565:2664   */\n    tag_69:\n        /* \"#utility.yul\":2617:2623   */\n      0x00\n        /* \"#utility.yul\":2651:2656   */\n      dup2\n        /* \"#utility.yul\":2645:2657   */\n      mload\n        /* \"#utility.yul\":2635:2657   */\n      swap1\n      pop\n        /* \"#utility.yul\":2565:2664   */\n      swap2\n      swap1\n      pop\n      jump\t// out\n        /* \"#utility.yul\":2670:2839   */\n    tag_71:\n        /* \"#utility.yul\":2754:2765   */\n      0x00\n        /* \"#utility.yul\":2788:2794   */\n      dup3\n        /* \"#utility.yul\":2783:2786   */\n      dup3\n        /* \"#utility.yul\":2776:2795   */\n      mstore\n        /* \"#utility.yul\":2828:2832   */\n      0x20\n        /* \"#utility.yul\":2823:2826   */\n      dup3\n        /* \"#utility.yul\":2819:2833   */\n      add\n        /* \"#utility.yul\":2804:2833   */\n      swap1\n      pop\n        /* \"#utility.yul\":2670:2839   */\n      swap3\n      swap2\n      pop\n      pop\n      jump\t// out\n        /* \"#utility.yul\":2845:3150   */\n    tag_41:\n        /* \"#utility.yul\":2885:2888   */\n      0x00\n        /* \"#utility.yul\":2904:2924   */\n      tag_91\n        /* \"#utility.yul\":2922:2923   */\n      dup3\n        /* \"#utility.yul\":2904:2924   */\n      tag_79\n      jump\t// in\n    tag_91:\n        /* \"#utility.yul\":2899:2924   */\n      swap2\n      pop\n        /* \"#utility.yul\":2938:2958   */\n      tag_92\n        /* \"#utility.yul\":2956:2957   */\n      dup4\n        /* \"#utility.yul\":2938:2958   */\n      tag_79\n      jump\t// in\n    tag_92:\n        /* \"#utility.yul\":2933:2958   */\n      swap3\n      pop\n        /* \"#utility.yul\":3092:3093   */\n      dup3\n        /* \"#utility.yul\":3024:3090   */\n      0xffffffffffffffffffffffffffffffffffffffffffffffffffffffffffffffff\n        /* \"#utility.yul\":3020:3094   */\n      sub\n        /* \"#utility.yul\":3017:3018   */\n      dup3\n        /* \"#utility.yul\":3014:3095   */\n      gt\n        /* \"#utility.yul\":3011:3118   */\n      iszero\n      tag_93\n      jumpi\n        /* \"#utility.yul\":3098:3116   */\n      tag_94\n      tag_95\n      jump\t// in\n    tag_94:\n        /* \"#utility.yul\":3011:3118   */\n    tag_93:\n        /* \"#utility.yul\":3142:3143   */\n      dup3\n        /* \"#utility.yul\":3139:3140   */\n      dup3\n        /* \"#utility.yul\":3135:3144   */\n      add\n        /* \"#utility.yul\":3128:3144   */\n      swap1\n      pop\n        /* \"#utility.yul\":2845:3150   */\n      swap3\n      swap2\n      pop\n      pop\n      jump\t// out\n        /* \"#utility.yul\":3156:3347   */\n    tag_38:\n        /* \"#utility.yul\":3196:3200   */\n      0x00\n        /* \"#utility.yul\":3216:3236   */\n      tag_97\n        /* \"#utility.yul\":3234:3235   */\n      dup3\n        /* \"#utility.yul\":3216:3236   */\n      tag_79\n      jump\t// in\n    tag_97:\n        /* \"#utility.yul\":3211:3236   */\n      swap2\n      pop\n        /* \"#utility.yul\":3250:3270   */\n      tag_98\n        /* \"#utility.yul\":3268:3269   */\n      dup4\n        /* \"#utility.yul\":3250:3270   */\n      tag_79\n      jump\t// in\n    tag_98:\n        /* \"#utility.yul\":3245:3270   */\n      swap3\n      pop\n        /* \"#utility.yul\":3289:3290   */\n      dup3\n        /* \"#utility.yul\":3286:3287   */\n      dup3\n        /* \"#utility.yul\":3283:3291   */\n      lt\n        /* \"#utility.yul\":3280:3314   */\n      iszero\n      tag_99\n      jumpi\n        /* \"#utility.yul\":3294:3312   */\n      tag_100\n      tag_95\n      jump\t// in\n    tag_100:\n        /* \"#utility.yul\":3280:3314   */\n    tag_99:\n        /* \"#utility.yul\":3339:3340   */\n      dup3\n        /* \"#utility.yul\":3336:3337   */\n      dup3\n        /* \"#utility.yul\":3332:3341   */\n      sub\n        /* \"#utility.yul\":3324:3341   */\n      swap1\n      pop\n        /* \"#utility.yul\":3156:3347   */\n      swap3\n      swap2\n      pop\n      pop\n      jump\t// out\n        /* \"#utility.yul\":3353:3449   */\n    tag_101:\n        /* \"#utility.yul\":3390:3397   */\n      0x00\n        /* \"#utility.yul\":3419:3443   */\n      tag_103\n        /* \"#utility.yul\":3437:3442   */\n      dup3\n        /* \"#utility.yul\":3419:3443   */\n      tag_104\n      jump\t// in\n    tag_103:\n        /* \"#utility.yul\":3408:3443   */\n      swap1\n      pop\n        /* \"#utility.yul\":3353:3449   */\n      swap2\n      swap1\n      pop\n      jump\t// out\n        /* \"#utility.yul\":3455:3545   */\n    tag_65:\n        /* \"#utility.yul\":3489:3496   */\n      0x00\n        /* \"#utility.yul\":3532:3537   */\n      dup2\n        /* \"#utility.yul\":3525:3538   */\n      iszero\n        /* \"#utility.yul\":3518:3539   */\n      iszero\n        /* \"#utility.yul\":3507:3539   */\n      swap1\n      pop\n        /* \"#utility.yul\":3455:3545   */\n      swap2\n      swap1\n      pop\n      jump\t// out\n        /* \"#utility.yul\":3551:3677   */\n    tag_104:\n        /* \"#utility.yul\":3588:3595   */\n      0x00\n        /* \"#utility.yul\":3628:3670   */\n      0xffffffffffffffffffffffffffffffffffffffff\n        /* \"#utility.yul\":3621:3626   */\n      dup3\n        /* \"#utility.yul\":3617:3671   */\n      and\n        /* \"#utility.yul\":3606:3671   */\n      swap1\n      pop\n        /* \"#utility.yul\":3551:3677   */\n      swap2\n      swap1\n      pop\n      jump\t// out\n        /* \"#utility.yul\":3683:3760   */\n    tag_79:\n        /* \"#utility.yul\":3720:3727   */\n      0x00\n        /* \"#utility.yul\":3749:3754   */\n      dup2\n        /* \"#utility.yul\":3738:3754   */\n      swap1\n      pop\n        /* \"#utility.yul\":3683:3760   */\n      swap2\n      swap1\n      pop\n      jump\t// out\n        /* \"#utility.yul\":3766:4073   */\n    tag_73:\n        /* \"#utility.yul\":3834:3835   */\n      0x00\n        /* \"#utility.yul\":3844:3957   */\n    tag_109:\n        /* \"#utility.yul\":3858:3864   */\n      dup4\n        /* \"#utility.yul\":3855:3856   */\n      dup2\n        /* \"#utility.yul\":3852:3865   */\n      lt\n        /* \"#utility.yul\":3844:3957   */\n      iszero\n      tag_111\n      jumpi\n        /* \"#utility.yul\":3943:3944   */\n      dup1\n        /* \"#utility.yul\":3938:3941   */\n      dup3\n        /* \"#utility.yul\":3934:3945   */\n      add\n        /* \"#utility.yul\":3928:3946   */\n      mload\n        /* \"#utility.yul\":3924:3925   */\n      dup2\n        /* \"#utility.yul\":3919:3922   */\n      dup5\n        /* \"#utility.yul\":3915:3926   */\n      add\n        /* \"#utility.yul\":3908:3947   */\n      mstore\n        /* \"#utility.yul\":3880:3882   */\n      0x20\n        /* \"#utility.yul\":3877:3878   */\n      dup2\n        /* \"#utility.yul\":3873:3883   */\n      add\n        /* \"#utility.yul\":3868:3883   */\n      swap1\n      pop\n        /* \"#utility.yul\":3844:3957   */\n      jump(tag_109)\n    tag_111:\n        /* \"#utility.yul\":3975:3981   */\n      dup4\n        /* \"#utility.yul\":3972:3973   */\n      dup2\n        /* \"#utility.yul\":3969:3982   */\n      gt\n        /* \"#utility.yul\":3966:4067   */\n      iszero\n      tag_112\n      jumpi\n        /* \"#utility.yul\":4055:4056   */\n      0x00\n        /* \"#utility.yul\":4046:4052   */\n      dup5\n        /* \"#utility.yul\":4041:4044   */\n      dup5\n        /* \"#utility.yul\":4037:4053   */\n      add\n        /* \"#utility.yul\":4030:4057   */\n      mstore\n        /* \"#utility.yul\":3966:4067   */\n    tag_112:\n        /* \"#utility.yul\":3815:4073   */\n      pop\n        /* \"#utility.yul\":3766:4073   */\n      pop\n      pop\n      pop\n      jump\t// out\n        /* \"#utility.yul\":4079:4259   */\n    tag_95:\n        /* \"#utility.yul\":4127:4204   */\n      0x4e487b7100000000000000000000000000000000000000000000000000000000\n        /* \"#utility.yul\":4124:4125   */\n      0x00\n        /* \"#utility.yul\":4117:4205   */\n      mstore\n        /* \"#utility.yul\":4224:4228   */\n      0x11\n        /* \"#utility.yul\":4221:4222   */\n      0x04\n        /* \"#utility.yul\":4214:4229   */\n      mstore\n        /* \"#utility.yul\":4248:4252   */\n      0x24\n        /* \"#utility.yul\":4245:4246   */\n      0x00\n        /* \"#utility.yul\":4238:4253   */\n      revert\n        /* \"#utility.yul\":4388:4505   */\n    tag_55:\n        /* \"#utility.yul\":4497:4498   */\n      0x00\n        /* \"#utility.yul\":4494:4495   */\n      dup1\n        /* \"#utility.yul\":4487:4499   */\n      revert\n        /* \"#utility.yul\":4511:4613   */\n    tag_75:\n        /* \"#utility.yul\":4552:4558   */\n      0x00\n        /* \"#utility.yul\":4603:4605   */\n      0x1f\n        /* \"#utility.yul\":4599:4606   */\n      not\n        /* \"#utility.yul\":4594:4596   */\n      0x1f\n        /* \"#utility.yul\":4587:4592   */\n      dup4\n        /* \"#utility.yul\":4583:4597   */\n      add\n        /* \"#utility.yul\":4579:4607   */\n      and\n        /* \"#utility.yul\":4569:4607   */\n      swap1\n      pop\n        /* \"#utility.yul\":4511:4613   */\n      swap2\n      swap1\n      pop\n      jump\t// out\n        /* \"#utility.yul\":4619:4741   */\n    tag_47:\n        /* \"#utility.yul\":4692:4716   */\n      tag_119\n        /* \"#utility.yul\":4710:4715   */\n      dup2\n        /* \"#utility.yul\":4692:4716   */\n      tag_101\n      jump\t// in\n    tag_119:\n        /* \"#utility.yul\":4685:4690   */\n      dup2\n        /* \"#utility.yul\":4682:4717   */\n      eq\n        /* \"#utility.yul\":4672:4735   */\n      tag_120\n      jumpi\n        /* \"#utility.yul\":4731:4732   */\n      0x00\n        /* \"#utility.yul\":4728:4729   */\n      dup1\n        /* \"#utility.yul\":4721:4733   */\n      revert\n        /* \"#utility.yul\":4672:4735   */\n    tag_120:\n        /* \"#utility.yul\":4619:4741   */\n      pop\n      jump\t// out\n        /* \"#utility.yul\":4747:4869   */\n    tag_51:\n        /* \"#utility.yul\":4820:4844   */\n      tag_122\n        /* \"#utility.yul\":4838:4843   */\n      dup2\n        /* \"#utility.yul\":4820:4844   */\n      tag_79\n      jump\t// in\n    tag_122:\n        /* \"#utility.yul\":4813:4818   */\n      dup2\n        /* \"#utility.yul\":4810:4845   */\n      eq\n        /* \"#utility.yul\":4800:4863   */\n      tag_123\n      jumpi\n        /* \"#utility.yul\":4859:4860   */\n      0x00\n        /* \"#utility.yul\":4856:4857   */\n      dup1\n        /* \"#utility.yul\":4849:4861   */\n      revert\n        /* \"#utility.yul\":4800:4863   */\n    tag_123:\n        /* \"#utility.yul\":4747:4869   */\n      pop\n      jump\t// out\n\n    auxdata: 0xa2646970667358221220dae66cf0271aa4322933d7e39f2f5f3c63fb3ae433a4547fe612701217d4844664736f6c63430008070033\n}\n",
				"bytecode": {
					"linkReferences": {},
					"object": "608060405234801561001057600080fd5b506040516107b03803806107b083398181016040528101906100329190610099565b806001819055506001546000803373ffffffffffffffffffffffffffffffffffffffff1673ffffffffffffffffffffffffffffffffffffffff16815260200190815260200160002081905550506100ec565b600081519050610093816100d5565b92915050565b6000602082840312156100af576100ae6100d0565b5b60006100bd84828501610084565b91505092915050565b6000819050919050565b600080fd5b6100de816100c6565b81146100e957600080fd5b50565b6106b5806100fb6000396000f3fe608060405234801561001057600080fd5b506004361061004c5760003560e01c806306fdde031461005157806318160ddd1461006f57806370a082311461008d578063a9059cbb146100bd575b600080fd5b6100596100ed565b60405161006691906104ae565b60405180910390f35b610077610126565b60405161008491906104d0565b60405180910390f35b6100a760048036038101906100a291906103cf565b610130565b6040516100b491906104d0565b60405180910390f35b6100d760048036038101906100d291906103fc565b610178565b6040516100e49190610493565b60405180910390f35b6040518060400160405280600b81526020017f53616d706c65546f6b656e00000000000000000000000000000000000000000081525081565b6000600154905090565b60008060008373ffffffffffffffffffffffffffffffffffffffff1673ffffffffffffffffffffffffffffffffffffffff168152602001908152602001600020549050919050565b60008060003373ffffffffffffffffffffffffffffffffffffffff1673ffffffffffffffffffffffffffffffffffffffff168152602001908152602001600020548211156101c557600080fd5b610216826000803373ffffffffffffffffffffffffffffffffffffffff1673ffffffffffffffffffffffffffffffffffffffff1681526020019081526020016000205461035a90919063ffffffff16565b6000803373ffffffffffffffffffffffffffffffffffffffff1673ffffffffffffffffffffffffffffffffffffffff168152602001908152602001600020819055506102a9826000808673ffffffffffffffffffffffffffffffffffffffff1673ffffffffffffffffffffffffffffffffffffffff1681526020019081526020016000205461037d90919063ffffffff16565b6000808573ffffffffffffffffffffffffffffffffffffffff1673ffffffffffffffffffffffffffffffffffffffff168152602001908152602001600020819055508273ffffffffffffffffffffffffffffffffffffffff163373ffffffffffffffffffffffffffffffffffffffff167fddf252ad1be2c89b69c2b068fc378daa952ba7f163c4a11628f55a4df523b3ef8460405161034891906104d0565b60405180910390a36001905092915050565b60008282111561036957600080fd5b8183610375919061055d565b905092915050565b600080828461038c9190610507565b90508381101561039b57600080fd5b8091505092915050565b6000813590506103b481610651565b92915050565b6000813590506103c981610668565b92915050565b6000602082840312156103e5576103e461063b565b5b60006103f3848285016103a5565b91505092915050565b600080604083850312156104135761041261063b565b5b6000610421858286016103a5565b9250506020610432858286016103ba565b9150509250929050565b610445816105a3565b82525050565b6000610456826104eb565b61046081856104f6565b93506104708185602086016105d9565b61047981610640565b840191505092915050565b61048d816105cf565b82525050565b60006020820190506104a8600083018461043c565b92915050565b600060208201905081810360008301526104c8818461044b565b905092915050565b60006020820190506104e56000830184610484565b92915050565b600081519050919050565b600082825260208201905092915050565b6000610512826105cf565b915061051d836105cf565b9250827fffffffffffffffffffffffffffffffffffffffffffffffffffffffffffffffff038211156105525761055161060c565b5b828201905092915050565b6000610568826105cf565b9150610573836105cf565b9250828210156105865761058561060c565b5b828203905092915050565b600061059c826105af565b9050919050565b60008115159050919050565b600073ffffffffffffffffffffffffffffffffffffffff82169050919050565b6000819050919050565b60005b838110156105f75780820151818401526020810190506105dc565b83811115610606576000848401525b50505050565b7f4e487b7100000000000000000000000000000000000000000000000000000000600052601160045260246000fd5b600080fd5b6000601f19601f8301169050919050565b61065a81610591565b811461066557600080fd5b50565b610671816105cf565b811461067c57600080fd5b5056fea2646970667358221220dae66cf0271aa4322933d7e39f2f5f3c63fb3ae433a4547fe612701217d4844664736f6c63430008070033",
					"opcodes": "PUSH1 0x80 PUSH1 0x40 MSTORE CALLVALUE DUP1 ISZERO PUSH2 0x10 JUMPI PUSH1 0x0 DUP1 REVERT JUMPDEST POP PUSH1 0x40 MLOAD PUSH2 0x7B0 CODESIZE SUB DUP1 PUSH2 0x7B0 DUP4 CODECOPY DUP2 DUP2 ADD PUSH1 0x40 MSTORE DUP2 ADD SWAP1 PUSH2 0x32 SWAP2 SWAP1 PUSH2 0x99 JUMP JUMPDEST DUP1 PUSH1 0x1 DUP2 SWAP1 SSTORE POP PUSH1 0x1 SLOAD PUSH1 0x0 DUP1 CALLER PUSH20 0xFFFFFFFFFFFFFFFFFFFFFFFFFFFFFFFFFFFFFFFF AND PUSH20 0xFFFFFFFFFFFFFFFFFFFFFFFFFFFFFFFFFFFFFFFF AND DUP2 MSTORE PUSH1 0x20 ADD SWAP1 DUP2 MSTORE PUSH1 0x20 ADD PUSH1 0x0 KECCAK256 DUP2 SWAP1 SSTORE POP POP PUSH2 0xEC JUMP JUMPDEST PUSH1 0x0 DUP2 MLOAD SWAP1 POP PUSH2 0x93 DUP2 PUSH2 0xD5 JUMP JUMPDEST SWAP3 SWAP2 POP POP JUMP JUMPDEST PUSH1 0x0 PUSH1 0x20 DUP3 DUP5 SUB SLT ISZERO PUSH2 0xAF JUMPI PUSH2 0xAE PUSH2 0xD0 JUMP JUMPDEST JUMPDEST PUSH1 0x0 PUSH2 0xBD DUP5 DUP3 DUP6 ADD PUSH2 0x84 JUMP JUMPDEST SWAP2 POP POP SWAP3 SWAP2 POP POP JUMP JUMPDEST PUSH1 0x0 DUP2 SWAP1 POP SWAP2 SWAP1 POP JUMP JUMPDEST PUSH1 0x0 DUP1 REVERT JUMPDEST PUSH2 0xDE DUP2 PUSH2 0xC6 JUMP JUMPDEST DUP2 EQ PUSH2 0xE9 JUMPI PUSH1 0x0 DUP1 REVERT JUMPDEST POP JUMP JUMPDEST PUSH2 0x6B5 DUP1 PUSH2 0xFB PUSH1 0x0 CODECOPY PUSH1 0x0 RETURN INVALID PUSH1 0x80 PUSH1 0x40 MSTORE CALLVALUE DUP1 ISZERO PUSH2 0x10 JUMPI PUSH1 0x0 DUP1 REVERT JUMPDEST POP PUSH1 0x4 CALLDATASIZE LT PUSH2 0x4C JUMPI PUSH1 0x0 CALLDATALOAD PUSH1 0xE0 SHR DUP1 PUSH4 0x6FDDE03 EQ PUSH2 0x51 JUMPI DUP1 PUSH4 0x18160DDD EQ PUSH2 0x6F JUMPI DUP1 PUSH4 0x70A08231 EQ PUSH2 0x8D JUMPI DUP1 PUSH4 0xA9059CBB EQ PUSH2 0xBD JUMPI JUMPDEST PUSH1 0x0 DUP1 REVERT JUMPDEST PUSH2 0x59 PUSH2 0xED JUMP JUMPDEST PUSH1 0x40 MLOAD PUSH2 0x66 SWAP2 SWAP1 PUSH2 0x4AE JUMP JUMPDEST PUSH1 0x40 MLOAD DUP1 SWAP2 SUB SWAP1 RETURN JUMPDEST PUSH2 0x77 PUSH2 0x126 JUMP JUMPDEST PUSH1 0x40 MLOAD PUSH2 0x84 SWAP2 SWAP1 PUSH2 0x4D0 JUMP JUMPDEST PUSH1 0x40 MLOAD DUP1 SWAP2 SUB SWAP1 RETURN JUMPDEST PUSH2 0xA7 PUSH1 0x4 DUP1 CALLDATASIZE SUB DUP2 ADD SWAP1 PUSH2 0xA2 SWAP2 SWAP1 PUSH2 0x3CF JUMP JUMPDEST PUSH2 0x130 JUMP JUMPDEST PUSH1 0x40 MLOAD PUSH2 0xB4 SWAP2 SWAP1 PUSH2 0x4D0 JUMP JUMPDEST PUSH1 0x40 MLOAD DUP1 SWAP2 SUB SWAP1 RETURN JUMPDEST PUSH2 0xD7 PUSH1 0x4 DUP1 CALLDATASIZE SUB DUP2 ADD SWAP1 PUSH2 0xD2 SWAP2 SWAP1 PUSH2 0x3FC JUMP JUMPDEST PUSH2 0x178 JUMP JUMPDEST PUSH1 0x40 MLOAD PUSH2 0xE4 SWAP2 SWAP1 PUSH2 0x493 JUMP JUMPDEST PUSH1 0x40 MLOAD DUP1 SWAP2 SUB SWAP1 RETURN JUMPDEST PUSH1 0x40 MLOAD DUP1 PUSH1 0x40 ADD PUSH1 0x40 MSTORE DUP1 PUSH1 0xB DUP2 MSTORE PUSH1 0x20 ADD PUSH32 0x53616D706C65546F6B656E000000000000000000000000000000000000000000 DUP2 MSTORE POP DUP2 JUMP JUMPDEST PUSH1 0x0 PUSH1 0x1 SLOAD SWAP1 POP SWAP1 JUMP JUMPDEST PUSH1 0x0 DUP1 PUSH1 0x0 DUP4 PUSH20 0xFFFFFFFFFFFFFFFFFFFFFFFFFFFFFFFFFFFFFFFF AND PUSH20 0xFFFFFFFFFFFFFFFFFFFFFFFFFFFFFFFFFFFFFFFF AND DUP2 MSTORE PUSH1 0x20 ADD SWAP1 DUP2 MSTORE PUSH1 0x20 ADD PUSH1 0x0 KECCAK256 SLOAD SWAP1 POP SWAP2 SWAP1 POP JUMP JUMPDEST PUSH1 0x0 DUP1 PUSH1 0x0 CALLER PUSH20 0xFFFFFFFFFFFFFFFFFFFFFFFFFFFFFFFFFFFFFFFF AND PUSH20 0xFFFFFFFFFFFFFFFFFFFFFFFFFFFFFFFFFFFFFFFF AND DUP2 MSTORE PUSH1 0x20 ADD SWAP1 DUP2 MSTORE PUSH1 0x20 ADD PUSH1 0x0 KECCAK256 SLOAD DUP3 GT ISZERO PUSH2 0x1C5 JUMPI PUSH1 0x0 DUP1 REVERT JUMPDEST PUSH2 0x216 DUP3 PUSH1 0x0 DUP1 CALLER PUSH20 0xFFFFFFFFFFFFFFFFFFFFFFFFFFFFFFFFFFFFFFFF AND PUSH20 0xFFFFFFFFFFFFFFFFFFFFFFFFFFFFFFFFFFFFFFFF AND DUP2 MSTORE PUSH1 0x20 ADD SWAP1 DUP2 MSTORE PUSH1 0x20 ADD PUSH1 0x0 KECCAK256 SLOAD PUSH2 0x35A SWAP1 SWAP2 SWAP1 PUSH4 0xFFFFFFFF AND JUMP JUMPDEST PUSH1 0x0 DUP1 CALLER PUSH20 0xFFFFFFFFFFFFFFFFFFFFFFFFFFFFFFFFFFFFFFFF AND PUSH20 0xFFFFFFFFFFFFFFFFFFFFFFFFFFFFFFFFFFFFFFFF AND DUP2 MSTORE PUSH1 0x20 ADD SWAP1 DUP2 MSTORE PUSH1 0x20 ADD PUSH1 0x0 KECCAK256 DUP2 SWAP1 SSTORE POP PUSH2 0x2A9 DUP3 PUSH1 0x0 DUP1 DUP7 PUSH20 0xFFFFFFFFFFFFFFFFFFFFFFFFFFFFFFFFFFFFFFFF AND PUSH20 0xFFFFFFFFFFFFFFFFFFFFFFFFFFFFFFFFFFFFFFFF AND DUP2 MSTORE PUSH1 0x20 ADD SWAP1 DUP2 MSTORE PUSH1 0x20 ADD PUSH1 0x0 KECCAK256 SLOAD PUSH2 0x37D SWAP1 SWAP2 SWAP1 PUSH4 0xFFFFFFFF AND JUMP JUMPDEST PUSH1 0x0 DUP1 DUP6 PUSH20 0xFFFFFFFFFFFFFFFFFFFFFFFFFFFFFFFFFFFFFFFF AND PUSH20 0xFFFFFFFFFFFFFFFFFFFFFFFFFFFFFFFFFFFFFFFF AND DUP2 MSTORE PUSH1 0x20 ADD SWAP1 DUP2 MSTORE PUSH1 0x20 ADD PUSH1 0x0 KECCAK256 DUP2 SWAP1 SSTORE POP DUP3 PUSH20 0xFFFFFFFFFFFFFFFFFFFFFFFFFFFFFFFFFFFFFFFF AND CALLER PUSH20 0xFFFFFFFFFFFFFFFFFFFFFFFFFFFFFFFFFFFFFFFF AND PUSH32 0xDDF252AD1BE2C89B69C2B068FC378DAA952BA7F163C4A11628F55A4DF523B3EF DUP5 PUSH1 0x40 MLOAD PUSH2 0x348 SWAP2 SWAP1 PUSH2 0x4D0 JUMP JUMPDEST PUSH1 0x40 MLOAD DUP1 SWAP2 SUB SWAP1 LOG3 PUSH1 0x1 SWAP1 POP SWAP3 SWAP2 POP POP JUMP JUMPDEST PUSH1 0x0 DUP3 DUP3 GT ISZERO PUSH2 0x369 JUMPI PUSH1 0x0 DUP1 REVERT JUMPDEST DUP2 DUP4 PUSH2 0x375 SWAP2 SWAP1 PUSH2 0x55D JUMP JUMPDEST SWAP1 POP SWAP3 SWAP2 POP POP JUMP JUMPDEST PUSH1 0x0 DUP1 DUP3 DUP5 PUSH2 0x38C SWAP2 SWAP1 PUSH2 0x507 JUMP JUMPDEST SWAP1 POP DUP4 DUP2 LT ISZERO PUSH2 0x39B JUMPI PUSH1 0x0 DUP1 REVERT JUMPDEST DUP1 SWAP2 POP POP SWAP3 SWAP2 POP POP JUMP JUMPDEST PUSH1 0x0 DUP2 CALLDATALOAD SWAP1 POP PUSH2 0x3B4 DUP2 PUSH2 0x651 JUMP JUMPDEST SWAP3 SWAP2 POP POP JUMP JUMPDEST PUSH1 0x0 DUP2 CALLDATALOAD SWAP1 POP PUSH2 0x3C9 DUP2 PUSH2 0x668 JUMP JUMPDEST SWAP3 SWAP2 POP POP JUMP JUMPDEST PUSH1 0x0 PUSH1 0x20 DUP3 DUP5 SUB SLT ISZERO PUSH2 0x3E5 JUMPI PUSH2 0x3E4 PUSH2 0x63B JUMP JUMPDEST JUMPDEST PUSH1 0x0 PUSH2 0x3F3 DUP5 DUP3 DUP6 ADD PUSH2 0x3A5 JUMP JUMPDEST SWAP2 POP POP SWAP3 SWAP2 POP POP JUMP JUMPDEST PUSH1 0x0 DUP1 PUSH1 0x40 DUP4 DUP6 SUB SLT ISZERO PUSH2 0x413 JUMPI PUSH2 0x412 PUSH2 0x63B JUMP JUMPDEST JUMPDEST PUSH1 0x0 PUSH2 0x421 DUP6 DUP3 DUP7 ADD PUSH2 0x3A5 JUMP JUMPDEST SWAP3 POP POP PUSH1 0x20 PUSH2 0x432 DUP6 DUP3 DUP7 ADD PUSH2 0x3BA JUMP JUMPDEST SWAP2 POP POP SWAP3 POP SWAP3 SWAP1 POP JUMP JUMPDEST PUSH2 0x445 DUP2 PUSH2 0x5A3 JUMP JUMPDEST DUP3 MSTORE POP POP JUMP JUMPDEST PUSH1 0x0 PUSH2 0x456 DUP3 PUSH2 0x4EB JUMP JUMPDEST PUSH2 0x460 DUP2 DUP6 PUSH2 0x4F6 JUMP JUMPDEST SWAP4 POP PUSH2 0x470 DUP2 DUP6 PUSH1 0x20 DUP7 ADD PUSH2 0x5D9 JUMP JUMPDEST PUSH2 0x479 DUP2 PUSH2 0x640 JUMP JUMPDEST DUP5 ADD SWAP2 POP POP SWAP3 SWAP2 POP POP JUMP JUMPDEST PUSH2 0x48D DUP2 PUSH2 0x5CF JUMP JUMPDEST DUP3 MSTORE POP POP JUMP JUMPDEST PUSH1 0x0 PUSH1 0x20 DUP3 ADD SWAP1 POP PUSH2 0x4A8 PUSH1 0x0 DUP4 ADD DUP5 PUSH2 0x43C JUMP JUMPDEST SWAP3 SWAP2 POP POP JUMP JUMPDEST PUSH1 0x0 PUSH1 0x20 DUP3 ADD SWAP1 POP DUP2 DUP2 SUB PUSH1 0x0 DUP4 ADD MSTORE PUSH2 0x4C8 DUP2 DUP5 PUSH2 0x44B JUMP JUMPDEST SWAP1 POP SWAP3 SWAP2 POP POP JUMP JUMPDEST PUSH1 0x0 PUSH1 0x20 DUP3 ADD SWAP1 POP PUSH2 0x4E5 PUSH1 0x0 DUP4 ADD DUP5 PUSH2 0x484 JUMP JUMPDEST SWAP3 SWAP2 POP POP JUMP JUMPDEST PUSH1 0x0 DUP2 MLOAD SWAP1 POP SWAP2 SWAP1 POP JUMP JUMPDEST PUSH1 0x0 DUP3 DUP3 MSTORE PUSH1 0x20 DUP3 ADD SWAP1 POP SWAP3 SWAP2 POP POP JUMP JUMPDEST PUSH1 0x0 PUSH2 0x512 DUP3 PUSH2 0x5CF JUMP JUMPDEST SWAP2 POP PUSH2 0x51D DUP4 PUSH2 0x5CF JUMP JUMPDEST SWAP3 POP DUP3 PUSH32 0xFFFFFFFFFFFFFFFFFFFFFFFFFFFFFFFFFFFFFFFFFFFFFFFFFFFFFFFFFFFFFFFF SUB DUP3 GT ISZERO PUSH2 0x552 JUMPI PUSH2 0x551 PUSH2 0x60C JUMP JUMPDEST JUMPDEST DUP3 DUP3 ADD SWAP1 POP SWAP3 SWAP2 POP POP JUMP JUMPDEST PUSH1 0x0 PUSH2 0x568 DUP3 PUSH2 0x5CF JUMP JUMPDEST SWAP2 POP PUSH2 0x573 DUP4 PUSH2 0x5CF JUMP JUMPDEST SWAP3 POP DUP3 DUP3 LT ISZERO PUSH2 0x586 JUMPI PUSH2 0x585 PUSH2 0x60C JUMP JUMPDEST JUMPDEST DUP3 DUP3 SUB SWAP1 POP SWAP3 SWAP2 POP POP JUMP JUMPDEST PUSH1 0x0 PUSH2 0x59C DUP3 PUSH2 0x5AF JUMP JUMPDEST SWAP1 POP SWAP2 SWAP1 POP JUMP JUMPDEST PUSH1 0x0 DUP2 ISZERO ISZERO SWAP1 POP SWAP2 SWAP1 POP JUMP JUMPDEST PUSH1 0x0 PUSH20 0xFFFFFFFFFFFFFFFFFFFFFFFFFFFFFFFFFFFFFFFF DUP3 AND SWAP1 POP SWAP2 SWAP1 POP JUMP JUMPDEST PUSH1 0x0 DUP2 SWAP1 POP SWAP2 SWAP1 POP JUMP JUMPDEST PUSH1 0x0 JUMPDEST DUP4 DUP2 LT ISZERO PUSH2 0x5F7 JUMPI DUP1 DUP3 ADD MLOAD DUP2 DUP5 ADD MSTORE PUSH1 0x20 DUP2 ADD SWAP1 POP PUSH2 0x5DC JUMP JUMPDEST DUP4 DUP2 GT ISZERO PUSH2 0x606 JUMPI PUSH1 0x0 DUP5 DUP5 ADD MSTORE JUMPDEST POP POP POP POP JUMP JUMPDEST PUSH32 0x4E487B7100000000000000000000000000000000000000000000000000000000 PUSH1 0x0 MSTORE PUSH1 0x11 PUSH1 0x4 MSTORE PUSH1 0x24 PUSH1 0x0 REVERT JUMPDEST PUSH1 0x0 DUP1 REVERT JUMPDEST PUSH1 0x0 PUSH1 0x1F NOT PUSH1 0x1F DUP4 ADD AND SWAP1 POP SWAP2 SWAP1 POP JUMP JUMPDEST PUSH2 0x65A DUP2 PUSH2 0x591 JUMP JUMPDEST DUP2 EQ PUSH2 0x665 JUMPI PUSH1 0x0 DUP1 REVERT JUMPDEST POP JUMP JUMPDEST PUSH2 0x671 DUP2 PUSH2 0x5CF JUMP JUMPDEST DUP2 EQ PUSH2 0x67C JUMPI PUSH1 0x0 DUP1 REVERT JUMPDEST POP JUMP INVALID LOG2 PUSH5 0x6970667358 0x22 SLT KECCAK256 0xDA 0xE6 PUSH13 0xF0271AA4322933D7E39F2F5F3C PUSH4 0xFB3AE433 LOG4 SLOAD PUSH32 0xE612701217D4844664736F6C6343000807003300000000000000000000000000 "
				},
				"gasEstimates": {
					"creation": {
						"codeDepositCost": "343400",
						"executionCost": "infinite",
						"totalCost": "infinite"
					},
					"external": {
						"balanceOf(address)": "2863",
						"name()": "infinite",
						"totalSupply()": "2437",
						"transfer(address,uint256)": "infinite"
					}
				},
				"methodIdentifiers": {
					"balanceOf(address)": "70a08231",
					"name()": "06fdde03",
					"totalSupply()": "18160ddd",
					"transfer(address,uint256)": "a9059cbb"
				}
			},
			"storageLayout": {
				"storage": [
					{
						"astId": 43,
						"contract": "SampleToken.sol:SampleToken",
						"label": "balances",
						"offset": 0,
						"slot": "0",
						"type": "t_mapping(t_address,t_uint256)"
					},
					{
						"astId": 45,
						"contract": "SampleToken.sol:SampleToken",
						"label": "totalSupply_",
						"offset": 0,
						"slot": "1",
						"type": "t_uint256"
					}
				],
				"types": {
					"t_address": {
						"encoding": "inplace",
						"label": "address",
						"numberOfBytes": "20"
					},
					"t_mapping(t_address,t_uint256)": {
						"encoding": "mapping",
						"key": "t_address",
						"label": "mapping(address => uint256)",
						"numberOfBytes": "32",
						"value": "t_uint256"
					},
					"t_uint256": {
						"encoding": "inplace",
						"label": "uint256",
						"numberOfBytes": "32"
					}
				}
			},
			"userdoc": {
				"kind": "user",
				"methods": {},
				"version": 1
			}
		}
	}
}